:100000000C9490010C94C8010C94C8010C94C80184
:100010000C94C8010C94C8010C94C8010C94C8013C
:100020000C94C8010C94C8010C940B1C0C94DF1C9C
:100030000C94DC160C94C8010C94C8010C94C801F3
:100040000C94C8010C94C8010C94C8010C94C8010C
:100050000C94C8010C9463170C94C8010C94C8014B
:100060000C94C8010C94C8010C94C8010C94C801EC
:100070000C94C8010C94C8010C94C8010C94C801DC
:100080000C94C8010C94C8010C94C8010C94C801CC
:100090000C94C8010C94C8010C94C8010C94C801BC
:1000A0000C94C8010C94C8010C94C80101043330AD
:1000B0003030307C00010431303030307C000000C2
:1000C00000000000000000002A2B280000000000B3
:1000D00000000000000000000000002900000000F7
:1000E0002C1E3420212224342627252E362D373865
:1000F000271E1F202122232425263333362E37386E
:100100001F0405060708090A0B0C0D0E0F1011122B
:10011000131415161718191A1B1C1D2F3130232DF7
:10012000350405060708090A0B0C0D0E0F101112F5
:10013000131415161718191A1B1C1D2F3130354CA6
:1001400000000000000000000000000000000000AF
:10015000000000000000000000000000000000009F
:10016000000000007E0F00D4FFFFFFC700000078F2
:1001700032034D006900630072006F0073006F006E
:10018000660074002000570069007200650064007A
:1001900020004B006500790062006F006100720072
:1001A0006400000032034D006900630072006F00BC
:1001B00073006F0066007400200057006900720031
:1001C0006500640020004B006500790062006F004C
:1001D00061007200640000000403090409023B008E
:1001E000020100A0FA090400000103010100092135
:1001F00011010001224000070581030800010904E4
:100200000100010300000009211101000122B600D4
:10021000070582032000011201000200000008010E
:1002200000010001000102000105010902A1018590
:10023000020901A1000509190129081500250195E8
:1002400008750181020501093009311581257F9565
:10025000027508810609381581257F950175088189
:1002600006050C0A38021581257F9501750881065F
:10027000C0C005010980A101850319012AB7001535
:100280000126B700950175108100C0050C0901A178
:1002900001850419012AA002150126A00295017505
:1002A000108100C005010906A1018506050719E0B6
:1002B00029E7150025019508750181020507190038
:1002C00029EF1500250195F0750181020508190136
:1002D0002905950575019102950175039101C005E8
:1002E000010906A101050719E029E7150025019577
:1002F000087501810295017508810105071900291A
:10030000FF150026FF0095067508810005081901F4
:100310002905950575019102950175039101C000AC
:1003200011241FBECFEFDAE0DEBFCDBF04B603FE5F
:1003300018C08091690290916A02A0916B02B091FD
:100340006C028730904BA740B04B59F41092690271
:1003500010926A0210926B0210926C02E0E0F8E3D5
:10036000099511E0A0E0B1E0E6EBFEE302C00590E4
:100370000D92AA37B107D9F722E0AAE7B1E001C090
:100380001D92A936B207E1F70E94C10F0C94431FDA
:100390000C940000089560E085EB90E00E941D142D
:1003A0008DEE0E94C0038EEE0E94C00360E08CEAD6
:1003B00090E00E941D148FEE0E94C00380EF0E9407
:1003C000C0030895892B39F4FB018281882329F029
:1003D00081E080937C0181E0089510927C01FBCF45
:1003E00081E008950E94E201089508950E94F501B8
:1003F0000895A5E0B0E0EFEFF1E00C94AF1E498363
:100400005A833091820189819A81311119C0662302
:1004100099F0222389F00E947207182F682F898192
:100420009A810E945C0769817A81812F0E94C70DA1
:100430002596E3E00C94CB1E0E946707182FF3CF9C
:100440000E94720769817A81F1CFFC01262F4081D9
:1004500051816281738184810E94F901089581E054
:100460000895CF93DF93EC0160E00E942502BE0166
:100470000E94F601DF91CF9108950E94FC0E08952D
:100480000E94FF0E089508950E9427060E944302CD
:100490002FEF84E39CE0215080409040E1F700C0C2
:1004A000000008950E9444020E94871708950E9448
:1004B00044020E94AB1708950F931F93CF93DF93CD
:1004C0008C0161E00E942502EC01B8010E94F2015A
:1004D000811106C080E0DF91CF911F910F910895A7
:1004E000B801CE010E9413158823A1F3B801CE01F3
:1004F0000E945212882371F3B801CE010E94851424
:10050000882341F3F8018281882361F0CB35FDE532
:10051000DF0701F158F4C115ECE5DE0791F0CF3D9E
:10052000DC4591F0C8010E94F001D5CFCD358DE5B5
:10053000D80769F090F0C83ADD45A1F70E9457024C
:10054000C9CF0E945202C6CF0E942C0CF7CF0E9446
:100550006A0BE8CF0E94740BE5CF0E94780BE2CFC4
:100560000E94BE160E94CD0208950E94D1020E94F0
:10057000C316089508950E94BA02089581E008956F
:100580000E94BE0208950895CF93C82F0E94BB0217
:100590008C2F0E94C002CF91089580E00E94C40277
:1005A00008950E946F150E94C4020895CF930E947F
:1005B0006F15C82F80917D018C1779F0C0937D0154
:1005C0000E94481760937E0170937F0180938001A1
:1005D000909381018C2F0E94C402CF910895ABE0CB
:1005E000B0E0E5EFF2E00C94B01E4F8358876987C6
:1005F0007A878B8761110E94B50A1E821D8285E071
:10060000FE013796DE01119601900D928A95E1F771
:100610008C819D81892B61F449815A816B817C8118
:100620008D819E810E94DE092B96E2E00C94CC1E07
:1006300089819A8189238F3F79F3CE0101960E94A7
:100640002F028111E9CFF0CFFC01808191810E94BE
:10065000A4070895CF93C82F8823B9F08CEF8C0F8F
:10066000813AA8F46C2F80910001909101010E94C1
:10067000E415882329F08C2F0E94750A0E94D60A5F
:100680008C2F0E946D0A0E94D60ACF91089580E2B5
:100690008C0F883048F4C77081E001C0880FCA957C
:1006A000EAF70E94980AEFCFEBE5EC0FE33040F455
:1006B000F0E0EB5BFE4F808190E00E94A415E5CF57
:1006C000E8E5EC0FE73150F4F0E0EE0FFF1FE95ED4
:1006D000FE4F808191810E94BA15D7CFCD3EA8F2FE
:1006E0008C2F0E9445100E941811CFCF882379F1DA
:1006F0009CEF980F913A28F40E94750A0E94D60A3E
:10070000089590E2980F983050F4877091E001C0FE
:10071000990F8A95EAF7892F0E949E0AEFCF9BE5F1
:10072000980F933028F490E080E00E94A41508957B
:1007300098E5980F973128F490E080E00E94BA1570
:1007400008958D3E20F00E949F100E941811089578
:100750001F93CF93DF93182FEB010E942A0320975A
:1007600039F4812F0E947603DF91CF911F91089574
:100770008FE99FE00197F1F700C000002197EFCFCC
:1007800070E060E0893311F460E570E00E94A80336
:100790000895882321F00E94980A0E94D60A08959D
:1007A000882321F00E949E0A0E94D60A0895B0E094
:1007B000A0E0EDEDF3E00C94A91E6C01D62FC72F3D
:1007C000FC011281F580F2949FE0F9220E948E0ACA
:1007D000E82E8823B9F0E12E1123A1F08C2F807F21
:1007E000803421F080E28D0F8830D0F08091550266
:1007F00082FF16C082E00E94390B0E948E0A91E0AF
:10080000E82EE926BC2EB2948FE0B822FBE0FB155F
:1008100008F468C0EB2DF0E0EB5BF04E0C949A1EF0
:10082000E12CF0CF0C2F0F70C07F11F00295007FEC
:10083000112399F0002359F080E28D0F883010F0D9
:10084000D11107C0802F0E94980A0E94D60A8D2FCE
:1008500041C0802F0E94A80AF8CF8D2F0E947603F6
:10086000002309F43FC080E28D0F883010F0D111D1
:1008700004C0802F0E949E0A03C0802F0E94AE0AEF
:100880000E94D60A2FC00C2F0F70C07FC03211F00B
:100890000295007FDD2381F0D13009F463C011237C
:1008A00009F46DC0FF2009F463C0F601858180FF63
:1008B000CECF8F7085835CC08091550282FD33C09E
:1008C000112359F0002329F0802F0E94980A0E94DA
:1008D000D60A80E00E942A0305C080E00E947603C9
:1008E0000111C7CFEB2DE850FF0B349720F40E9485
:1008F0006F150E94C402EE2089F00E948A0A80FDD2
:100900000DC0F60112820E94840A0E94BA06C60136
:100910000E94E7050E94840A0E94CA06CDB7DEB78E
:10092000E9E00C94C51E112389F0F11006C00E9465
:10093000B80A802B0E94C903D5CF21E0F212F7CF6D
:100940000E94B80A802B0E94BF0ACCCFF11006C0CB
:100950000E94CC0A802F0E94D003C4CF31E0F3164E
:1009600009F2F6CF112331F085E08F1508F4BACFE4
:10097000802FE0CF94E09F1508F4B4CFEBCFFF2099
:1009800049F3D93349F4FFEF27EE33E0F15020402B
:100990003040E1F700C000008D2F0E947603A2CF07
:1009A0008C2F86958695837069F0813009F09ACFF7
:1009B0008D2F9C2F9370111102C090E080E00E9457
:1009C000BA1590CF8D2F9C2F9370111102C090E01B
:1009D00080E00E94A41586CF8D2F112329F00E945C
:1009E00045100E9418117ECF0E949F10FACF8C2FC5
:1009F0008370A1F5111176CF4D2F42954695477022
:100A0000440F440F2D2F2F7030E0042E02C0220F10
:100A1000331F0A94E2F790E080E0D4FF09C08FE032
:100A200090E002C0880F991F4A95E2F78095909553
:100A3000C695C695C370822B932BC23049F058F4EB
:100A4000C13019F00E9488064DCF0E947F064ACF20
:100A50000E94910647CF0E947C0644CF86951123C1
:100A600011F08C2F8170882309F43CCF4D2F4295D3
:100A700046954770440F440F2D2F2F7030E0042E01
:100A800002C0220F331F0A94E2F790E080E0D4FF07
:100A900009C08FE090E002C0880F991F4A95E2F7E5
:100AA00080959095C695C695C370822B932BC230C6
:100AB00049F058F4C13019F00E94F50613CF0E9496
:100AC000EC0610CF0E94FE060DCF0E94A0060ACFB2
:100AD000CF70112329F08C2F0E94BA068D2F2ACFB8
:100AE0008D2F0E94D0038C2F0E94CA06FBCED23FCE
:100AF00051F160F4D03FB9F0D13F81F0112309F4F6
:100B000049C0F110A4CE8C2F8F7121C0D33F11F1B9
:100B1000D43FA1F78091550282FD26C08C2F8F71A2
:100B2000112311F314C0112349F084E08F1508F448
:100B3000D9CE8C2F8F710E94DC06D4CE95E09F1504
:100B400008F4D0CEF6CF8C2F8F711111CDCF0E942B
:100B5000BA06C8CE112329F08C2F8F710E94AE06E1
:100B6000C1CE0E94A906BECE112349F0CF718C2FB1
:100B70000E94BA0663E08C2F0E941B0BB3CE81E06B
:100B80000E94390BE1E0EF1508F0ACCE82E00E9444
:100B9000390BA8CEF110F5CE8C2F8F71A5CF0F9306
:100BA0001F93CF93DF93EC01688179818A810E9442
:100BB000AF078C010E9407070E947B06B801CE0197
:100BC0000E94D703DF91CF911F910F910895CF938A
:100BD000DF93EC018B819C81892B29F0888199819D
:100BE00089238F3F51F4DF91CF910895CE010E9468
:100BF000CF05CE010E943102F6CFCE010E945C02E9
:100C00008111F4CF0E948E0A882369F38A81882398
:100C100051F38091550282FFE6CF82E00E94390BAA
:100C2000E2CF90E080E00E94A41590E080E00E9476
:100C3000BA150E94B50A0E94D60A0E9434110E9479
:100C4000181108950E947D0A0E94110608950E94BD
:100C5000A50A0E942206089592959F70963091F001
:100C600058F4925F9F70923058F4803F19F030F43E
:100C7000883E30F481E008959A5FF4CF843FD1F349
:100C800080E00895883EB0F3813FD1F7F3CFFC01B7
:100C900083819481892B29F08081918189238F3FE1
:100CA00011F480E00895808191810E94A4070E9440
:100CB0002C060895A5E0B0E0E0E6F6E00C94B01E46
:100CC0002596E2E00C94CC1EA6E0B0E0EAE6F6E061
:100CD0000C94B01E2696E2E00C94CC1E08950E945F
:100CE0006E0608950E946F0690938A018093890191
:100CF0000E941106089508950E9472060895209199
:100D0000890130918A01822B932B0E9472060895EB
:100D10002091890130918A01822393230E947206D7
:100D200008952091890130918A01822793270E949A
:100D3000720608950E946E0608950E949A0608950C
:100D40000E949D0690938801809387010E9411065E
:100D5000089590E080E00E94A006089521E030E030
:100D6000A90102C0440F551F8A95E2F7CA010E94EB
:100D7000A006089521E030E002C0220F331F8A95BB
:100D8000E2F78091870190918801822B932B0E943A
:100D9000A006089521E030E002C0220F331F8A959B
:100DA000E2F7209530958091870190918801822308
:100DB00093230E94A006089521E030E002C0220F94
:100DC000331F8A95E2F780918701909188018227ED
:100DD00093270E94A00608952091870130918801F1
:100DE000822B932B0E94A0060895209187013091B9
:100DF0008801822393230E94A006089520918701F1
:100E000030918801822793270E94A00608950895B3
:100E1000262F277091E001C0990F2A95EAF723E069
:100E2000769567952A95E1F7660F771F660F771F0E
:100E3000FA01E60FF71F50E040E0682F70E0819163
:100E4000DF0111979B01042E02C0369527950A9465
:100E5000E2F7217021952827292328272C934F5F1B
:100E60005F4F4430510559F70895A82FA77023E02C
:100E7000969587952A95E1F7880F991F880F991FF6
:100E8000FB01E80FF91F50E040E080E0219130E0E5
:100E90000A2E02C0369527950A94E2F7217033276F
:100EA000042E01C0220F0A94EAF7822B4F5F5F4F96
:100EB0004430510559F70895262F892B39F443E81A
:100EC00051E070E060E0822F0E9408070895892BAE
:100ED00039F463E871E090E080E00E9435070895FE
:100EE00080E00895B0E0A0E0E8E7F7E00C94A91EE8
:100EF0007C01009187011091880180918901909176
:100F00008A01082B192BCFE0D0E0CC24C394D12C3C
:100F1000BC2EC6010C2E02C0880F991F0A94E2F75E
:100F200080239123892B49F4219790F7B12C8B2DA5
:100F3000CDB7DEB7E9E00C94C51EB7018C2F0E9437
:100F4000D50D019789F3F3CFCF93DF93EC010E9486
:100F50007207BE010E94D50DDF91CF9108951F93B6
:100F6000CF93DF93EB0190918201992339F0CB016C
:100F70000E94A407DF91CF911F910895882369F003
:100F8000CB010E947207182F682FCE010E945C07C8
:100F9000BE01812F0E94D50DEDCFCB010E946707C6
:100FA000182FF6CF1F93CF93DF93C0918B0116E0DC
:100FB00080918C018C1304C0DF91CF911F91089513
:100FC000D0E01C9FF0011D9FF00D1124E357FE4F50
:100FD0004081518162817381848195810E94640680
:100FE0002196C770E5CF4091BD015091BE0160913F
:100FF000BF017091C0018091C1019091C2010E9416
:10100000640608951F93CF93DF938091C201807F80
:1010100009F049C08091BF01882309F444C0809140
:101020008B01C0918C016091BD017091BE01A091B6
:10103000C001B091C101D62FD72316E0C81799F18E
:1010400090E0109711F0DF3F19F401968770F6CF0A
:10105000189F9001199F300D1124F901E357FE4F9D
:1010600041814713F2CF40814613EFCF42814111B6
:10107000ECCF438154814A1B5B0B483C510528F758
:101080008091C2018F7080618093C201F901EE5698
:10109000FE4F80818F70806180838DEB91E00E9494
:1010A000E7050E94D207DF91CF911F910895A1E13A
:1010B000B0E0EDE5F8E00C94A81E8C0185E0F801A5
:1010C000DE011D9601900D928A95E1F7F801E2800C
:1010D0008DEBC82E81E0D82E6091C0017091C101C6
:1010E0006115710509F44EC19091BD012091BE01B9
:1010F000892F82238F3F09F445C140815181A3800C
:10110000B480F090BF01F501E61BF70BFF2009F456
:10111000EAC08091C201382F307FE83CF10508F029
:10112000A3C031116DC0FE2C251316C0941314C03A
:10113000E11012C08F7080618093C2010E94F3079A
:10114000C6010E94E7058091C201F80185838F2DB9
:101150006196EAE00C94C41EA114B10429F0842F16
:1011600085238F3F09F027C180E0F82FF170DF2E33
:1011700080FF3CC080918B0120918C0136E082136E
:1011800015C04D875E878D859E850E94A407292FF7
:1011900022952F702230F0F0243018F59F70F1F076
:1011A000F8019581907FD1F4D12C1EC090E0389F3A
:1011B000F001399FF00D1124E357FE4F6181651353
:1011C00006C06081641303C06281E6120FC00196FD
:1011D0008770D5CF9F7011F0882331F3805E8830FF
:1011E00018F3C8010E94E705FD2CB1CFEE2009F4E9
:1011F000AECF8091C20181608093C201F12CA7CF54
:10120000251306C0941304C0F801EE2009F487C02A
:10121000C8010E944706882319F1EE2009F1809148
:10122000C201803270F02091BD013091BE0138873B
:101230002F831986BB86AA868C87CE0107960E94CB
:10124000E70586E0F801ADEBB1E001900D928A95DB
:10125000E1F70E9402080E94F307FF24F39477CF7E
:10126000C8010E94E705F9CF311113C07A2DB98A60
:10127000A88A6E2D89890E945A068DEB91E00E9402
:10128000E70586E0F60111928A95E9F70E94F307D7
:10129000B5CF25130FC094130DC0E1100BC0F8019A
:1012A0008583C8010E94E70586E0F60111928A95C0
:1012B000E9F74DCFC8010E944706882389F2EE2046
:1012C00079F28091C201803208F4BBCF2091BD0138
:1012D0003091BE013A8329831B82BD82AC828E830A
:1012E000CE010196ACCFE83CF10508F03EC0FE2CE3
:1012F000EE2009F4B5CF25132AC0941328C080919D
:10130000C20180FD1BC0982F907FC1F0F80185833A
:10131000903F31F0982F907F905F8F70892B85835D
:10132000C8010E94E70586E0F801ADEBB1E001904D
:101330000D928A95E1F70E94F30709CF86E0F80144
:10134000ADEBB1E001900D928A95E1F700CFC801B5
:101350000E944706811175CF8091C2018160809300
:10136000C201C8010E94E705F2CE7A2DB98AA88A87
:101370006E2D89890E945A0686E0F60111928A959F
:10138000E9F7D9CFEE2009F46BCFC8010E944706D8
:10139000F82E882309F464CF86E0F801ADEBB1E0C4
:1013A00001900D928A95E1F78DEB91E00E94240364
:1013B0000E940208C0CF81E08E25D7CEACE0B0E01D
:1013C000E4EEF9E00C94AF1E4F83588769877A8763
:1013D0008B879C87CE0107960E945708882369F067
:1013E0008A859B85892B39F04F815885842F8523E9
:1013F0008F3F09F06BC016E05FC086E0FE013796B4
:10140000DE01119601900D928A95E1F78A859B8500
:10141000892B89F38F81988589238F3F61F32091F0
:101420008C0130E0C90101968770992740918B01AA
:101430004817190671F40E94270610928C01109229
:101440008B0186E0EDEBF1E0DF011D928A95E9F773
:10145000D2CF96E0929FD001939FB00D1124A35755
:10146000BE4FFE01319601900D929A95E1F780935F
:101470008C010E94D207BFCF819FC00111248357E6
:101480009E4F0E9457088823E9F0E0918B011E9F30
:10149000F0011124E357FE4F408151816281738135
:1014A000848195810E94640680918B0190E0019671
:1014B0008770992780938B0180918B0190918C018B
:1014C0008913DACF2C96E3E00C94CB1E69857A85DC
:1014D0008B859C850E9464068ECF682F80910001C9
:1014E000909101010E9464160895682F8091000177
:1014F000909101010E9472160895809100019091CF
:1015000001010E94801608958091E30185958595DB
:10151000859508958091E301877008959091E30186
:10152000977081E009F480E00895809106020895A3
:1015300090910602892B80930602089580959091E0
:1015400006029823909306020895109206020895C9
:1015500090910502892B80930502089580959091C2
:1015600005029823909305020895109205020895AC
:101570008091E401089508950E94BB0A0895909116
:10158000550292FF08C09091E401981721F08093D2
:10159000E4010E94BC0A08958091E401882329F0A7
:1015A0001092E40180E00E94BC0A0895CF93DF937B
:1015B000E0910001F0910101809106028083E091A9
:1015C0000001F0910101808190910502892B8083B7
:1015D0009091E401992381F0E0910001F0910101E3
:1015E0008081892B808380910001909101010E946C
:1015F000D01581110E94CC0AC0910001D091010147
:1016000040E250E063EC71E0CE010E94EB1E892BBA
:1016100059F080E2FE01A3ECB1E001900D928A95B1
:10162000E1F7CE010E947C15DF91CF9108950895D6
:101630000E94170B08959091550292FF11C098E0F7
:10164000899F90011124622B6093E3010E94BA06E6
:101650008091E3018595859585950E94180B0895E5
:101660000E94BA0608951092E30180E00E94180BD0
:1016700008959091E301809589238093E301282FB9
:10168000277091F4282F082E000C330B92171306A5
:1016900059F09091550292FF07C0859585958595E3
:1016A0000E94CA060E94330B08959091550292FB46
:1016B000222720F9281769F080FB92F990935502B0
:1016C00080915402909155020E94A60B82E00E94E4
:1016D000390B08958091550282FB882780F991E0AB
:1016E00089270E94550B089581E00E94550B0895AB
:1016F00080E00E94550B08956FEF7FEF90E080E04F
:101700000E942D1F089590E080E00E94091F21E0B3
:10171000883E9E4F09F020E0822F089582E090E0FD
:101720000E94011F089583E090E00E94011F089528
:10173000CF9384E090E00E94011FC82F82E290E0E6
:101740000E94011F982F8C2FCF910895CF93C92FFE
:10175000682F84E090E00E940F1F6C2F82E290E0DF
:101760000E940F1FCF910895AB01BC018FE090E064
:101770000E94211F0895AB01BC0183E190E00E940B
:10178000211F089560E070E0CB010E94BB0B08951B
:1017900060E070E0CB010E94B40B0E94C20B089580
:1017A00068EE7EEF90E080E00E942D1F60E082E016
:1017B00090E00E940F1F60E083E090E00E940F1F06
:1017C00010928A011092890160E084E090E00E940A
:1017D0000F1F64E082E290E00E940F1F60E085E04E
:1017E00090E00E940F1F60E086E090E00E940F1FD3
:1017F0006FEF87E090E00E940F1F40E050E0BA01D9
:1018000088E090E00E94211F60E08DE090E00E945F
:101810000F1F40E050E0BA0188E190E00E94211FD4
:1018200060E087E190E00E940F1F40E050E0BA01C5
:101830008CE190E00E94211F70E060E080E290E087
:101840000E942D1F40E050E0BA0188E190E00E9424
:10185000211F0E94C80B08950E94D00B0895682F85
:101860008EE090E00E940F1F08950E944817609339
:101870000E0270930F0280931002909311026093F6
:101880000A0270930B0280930C0290930D0208954C
:10189000089508950E94490C089508950E944D0CE2
:1018A00008958FEB9EE00E9465150E94480C0E94EF
:1018B0004A0C089581E008950E945A0C08950895F5
:1018C00008950E945F0C0E94600C08950E94DE0E35
:1018D0000E94C30208950E9433170E94440F0E9481
:1018E000660C0E944E0C0895AAE0B0E0EAE7FCE026
:1018F0000C94AE1E0E94500F1091090280E00E94CD
:10190000020F181326C00E943C178C018091070219
:101910009091080208171907A1F08FEF89838A8335
:101920001B820E943C178160782F9D838C834981A4
:101930005A816B818D810E94EF02109308020093FF
:1019400007020E9456110E94D6022A96E4E00C94E7
:10195000CA1E8091120281FD0E94080F0E945C0C39
:10196000082F80E00E94020F182F80910902912F0A
:101970009827181303C00E94350CE3CF90FF13C0C3
:10198000002389F01E821F82812F817088870E9428
:101990003C178160782F9A8789874E815F8168859F
:1019A0008A850E94EF0210930902E5CFCF93DF935F
:1019B0000E94DA0DEC01811521E5920708F042C082
:1019C000811530E5930708F09FC0883E910530F5FA
:1019D000803E910508F094C0883A910588F4853AD4
:1019E000910508F086C08130910509F489C00097FF
:1019F00009F486C0049708F083C0D0E0C0E080C03E
:101A00008F3B9105D0F7C85AD0E0CC0FDD1FC85BE3
:101A1000DE4F0990D881C02DD46472C0811540E298
:101A2000940750F4C11581E0D80708F069C0CD3E95
:101A3000D10518F3D06564C081159044F0F2DF70D1
:101A4000D06A5EC0811535E5930718F5811544E528
:101A5000940708F085C0C11583E5D80708F06CC06D
:101A6000C11522E5D20708F462C0CE018370992720
:101A700021E030E002C0220F331F8A95E2F7C695BD
:101A8000C69580E2C89FE0011124C22BD32BDC68ED
:101A900037C0811539E59307A8F4811548E5940707
:101AA00008F063C0C11586E5D80708F0A6CF8C2FD3
:101AB0000E947C0EC82FD0E0DC2FCC27CC27DF7112
:101AC000D0621EC081152AE5920708F453C09056D3
:101AD0008115904208F091CF8D2F8F710E947C0E5E
:101AE00090E0982F882788279F719C012C2BE90173
:101AF000E7CFC55AD0E0CA58DE4FC881D0E0D064E5
:101B0000CE01DF91CF9108958370992721E030E0D5
:101B100002C0220F331F8A95E2F7C695C69540E2B0
:101B2000C49FE0011124C22BD32BDD68E9CFDC2F49
:101B3000CC27C16FD06AE4CFCE018370992721E012
:101B400030E002C0220F331F8A95E2F7C695C69592
:101B500040E2C49FE0011124C22BD32BDA68D0CF1E
:101B6000D82FCC27C46FD06ACBCFD82FCC27C06F4B
:101B7000D06AC6CF8F700E947C0E34E0D695C79590
:101B80003A95E1F7CF709C2FEC01D069B9CF672B64
:101B900049F4E82FF0E0EE0FFF1FE254FF4F85916C
:101BA0009491089580E090E008950E94C70D0E94EE
:101BB000D60C089582389105B9F1B0F481339105BE
:101BC00009F47DC048F48932910509F46DC08A3268
:101BD000910509F47BC008958533910509F45FC030
:101BE0008933910509F10895833E9105D9F138F4BF
:101BF000803E910529F1823E910579F10895863E56
:101C00009105D9F1873E910509F43EC0843E9105C6
:101C100041F52091550221FF24C08091540284FD9A
:101C200019C087EE90E0089520915402237009F0C6
:101C30005AC02091550223FF14C089E290E0089514
:101C40002091540220FD38C03091550230FF09C068
:101C500024FF43C090E080E008952091540222FDCB
:101C6000F7CF08952091540222FD3AC030915502D9
:101C700030FD39C024FFF5CFEDCF2091540223FF72
:101C8000F0CF24FDE7CFCDCF2091540223FD2EC00D
:101C90003091550231FFEECF84EE90E0089520910F
:101CA000540225FFDECFC9CF2091540225FD21C06B
:101CB0002091550223FFD5CF89E390E0D2CF209128
:101CC000540226FFCECF8AE290E00895209154027C
:101CD00026FFC7CF81E390E0089583EE90E008955A
:101CE00082EE90E0089580EE90E0089586EE90E018
:101CF000089585E390E008959091540292FF06C004
:101D0000282F28712830F9F4877F846093FF06C05C
:101D1000282F28712831F1F4877E846120915502A3
:101D200020FF06C0382F38713830D9F4877F8160A2
:101D300021FF06C0282F28712831D1F4877E8161C8
:101D400094FD877E0895282F24712430F9F68B7F27
:101D50008860DCCF282F2471243101F78B7E8861C5
:101D6000DDCF382F3171313019F78E7F8860E0CFA9
:101D7000282F2171213121F78E7E8861E1CF80E00B
:101D800008950E947C0B08950E94500F2FEF86E764
:101D900091E0215080409040E1F700C000000E9497
:101DA000500F80E00E94020F80FF04C00E94C10E0D
:101DB0000E94871708950E94C40E08950E94830B05
:101DC000811102C00E942C0C0E948E0B8093120283
:101DD0000E94980B90935502809354020E94DB0E50
:101DE0000E94930B90E00E947C0680918701909165
:101DF00088010E949D0608950E94CA0108950E94CC
:101E0000CB010895E82FF0E0E95AFD4F8081089555
:101E1000089580EA8A95F1F7089500C008950E9418
:101E2000090F0895F89425982D9A789408950E94A2
:101E3000120FF89457985F9A78940895EF92FF9252
:101E40001F93CF93DF937C01162FF894259A2D983A
:101E500078940E940D0FC9B1D0E0CC0FCD2FCC1FCC
:101E6000DD0B81E0C8270E94120F6C2F6170812F5B
:101E70000E940F0FF701E10FF11DC083DF91CF9199
:101E80001F91FF90EF9008950E94170F1092570234
:101E90001092560281E00E94750F0E943D02089543
:101EA000A1E0B0E0E6E5FFE00C94AF1E198260E02F
:101EB000CE0101960E941E0F90915602898121E069
:101EC000981301C020E098138093560241E067E523
:101ED00072E086E592E00E94760F182F0E94400281
:101EE000812F2196E3E00C94CB1E0895CF92DF92D0
:101EF000EF92FF920F931F93CF936C017B01042FFE
:101F0000222349F081E0809315020E943C179093B0
:101F1000140280931302C0911502C1110AC0C0E0DF
:101F20008C2FCF911F910F91FF90EF90DF90CF906A
:101F3000089580911302909114020E9454170597FE
:101F400070F310E0A801B601C7010E94EB1E892BB7
:101F500041F0A801B601C7010E94F81E10921502B7
:101F6000DFCFC0E0FBCF0E9461190E946B0C0E9482
:101F70006E1908950E9473190E94740C0E948D19A5
:101F800008950E94D5160E9447190E94510C0E9484
:101F9000B30F0E94BA0F0E94610CFBCF80911C020C
:101FA00080FF0DC06091070170E0660F771F6038F9
:101FB000710570F56115710569F1862F089581FF2E
:101FC00007C06091070184E0689FB0011124EFCF42
:101FD0006091070182FD0AC080911B028823A9F04D
:101FE0002091060160910701821710F088E0ECCF84
:101FF000869FC001112433E0880F991F3A95E1F7BD
:10200000622F70E00E94861ED2CF68E070E0D5CFCC
:102010008FE7089581E0089580911C0280FF0CC035
:102020006091030170E075956795759567956115E9
:10203000710549F1862F089581FF06C06091030163
:1020400070E075956795F3CF6091030182FD0BC039
:1020500090911A029923A1F06091020180910301ED
:10206000961738F0682F70E06038710500F38FE73D
:102070000895899FC001112470E00E94861EF4CF4C
:1020800061E070E0D7CF81E008958D3E31F40E9489
:10209000CE0F81958093200208958E3E19F40E9400
:1020A000CE0FF8CF8F3E31F40E94CE0F81958093F2
:1020B0001F020895803F19F40E94CE0FF8CF893F88
:1020C00029F40E940C108093210208958A3F21F484
:1020D0000E940C108195F7CF8B3F31F40E940C10B9
:1020E00081958093220208958C3F19F40E940C1070
:1020F000F8CF9FE0980F983070F4815F990B21E042
:1021000030E001C0220F8A95EAF780911E02822BEF
:1021100080931E0208958D3F31F480911C028160EE
:1021200080931C0208958E3F21F480911C028260EE
:10213000F7CF8F3FB9F780911C028460F1CF4091B7
:102140001F028D3E59F48091200287FF0DC010922E
:10215000200241110BC010921B0208C08E3E81F478
:102160008091200218169CF3442381F08091210273
:1021700090912202892B09F05AC010921A020895F8
:102180008F3E49F447FFF0CF10921F02809120024A
:102190008111ECCFE0CF803F19F41416ACF3E4CFFB
:1021A00090912102893F29F41916F4F61092210228
:1021B000DBCF8A3F19F497FFD7CFF8CF9091220257
:1021C0008B3F29F497FFD0CF10922202CDCF8C3FC6
:1021D00019F41916CCF3C8CF9FE0980F983090F4FB
:1021E000815F990B21E030E0B90102C0660F771FD3
:1021F0008A95E2F7CB01809590911E028923809306
:102200001E02B2CF8D3F31F480911C028E7F8093ED
:102210001C02AACF8E3F21F480911C028D7FF7CF44
:102220008F3F09F0A1CF80911C028B7FF0CF0895E2
:102230000E943C179C0190911F0280912002982BD4
:1022400021F030931902209318029091210280917D
:102250002202982B21F030931702209316028DE171
:1022600092E00E949615089586E0EDE1F2E0DF012C
:102270001D928A95E9F710921B0210921A02109291
:102280001C020895FC01828181110EC0838181119D
:102290000BC08481811108C091E08581811101C04A
:1022A00090E0892F8170089581E0FCCFA6E0B0E036
:1022B000ECE5F1E10C94AF1E86E0EDE1F2E0DE0129
:1022C000119601900D928A95E1F710921F021092DB
:1022D000200210922102109222028B819C81892B74
:1022E00089F080911802909119020E945417AC0154
:1022F00090911B029923C9F180910801841715065A
:1023000008F440C08D819E81892B91F08091160246
:10231000909117020E945417AC0190911A029923D0
:1023200009F471C0809104018417150608F479C07E
:10233000BE016F5F7F4F8DE192E00E949216811186
:1023400005C08DE192E00E94421181110E94181196
:1023500086E0FE013196ADE1B2E001900D928A95E2
:10236000E1F72696E3E00C94CB1E209109018AE068
:10237000289F900111242417350720F69F5F909322
:102380001B0202C09F3FD1F71B81112359F00E940D
:10239000CE0F9FEF11160CF491E0899F802D112430
:1023A00080931F021C81112359F00E94CE0F9FEFD2
:1023B00011160CF491E0899F802D11248093200246
:1023C00030911F02332309F49DCF20912002222354
:1023D00009F498CF45EB3403C0011124992359F037
:1023E00090931F0245EB240390011124332339F00D
:1023F0003093200287CF81E080931F02F3CF81E0EA
:10240000809320027FCF209105018AE0289F9001D0
:1024100011242417350708F08BCF9F5F90931A0281
:1024200002C09F3FD1F71D81112359F00E940C106B
:102430009FEF11160CF491E0899F802D1124809359
:1024400021021E81112359F00E940C109FEF1116DA
:102450000CF491E0899F802D112480932202309109
:102460002102332309F464CF20912202222309F4AC
:102470005FCF45EB3403C0011124992359F09093A9
:10248000210245EB240390011124332339F03093CA
:1024900022024ECF81E080932102F3CF81E080932E
:1024A000220246CFCF93DF93EC01FB018281882388
:1024B00009F464C1C430FDE5DF07E0F5CB3F9CE5DE
:1024C000D90730F49E0122503C4524313105D8F51E
:1024D0000E94980B9093550280935402C231ECE510
:1024E000DE0709F41FC108F06EC0C9308CE5D807BB
:1024F00009F4F2C008F03FC0C530ECE5DE0709F48E
:10250000DBC058F5C3308CE5D80709F4CDC008F01E
:10251000CFC0809154028160C230DC4509F4AEC066
:1025200080915402909155020E94A60B0E942706AA
:1025300080E009C0C63AEDE5DE0751F238F4C23654
:102540009DE5D90729F2DF91CF9108959E012E5A7A
:102550003D4523303105B8F7BBCF809154028062EE
:10256000C730FCE5DF0709F489C008F4B1C08091E9
:102570005402806483C0CD309CE5D90709F4BAC009
:1025800070F4809154028E7FCB30FCE5DF0709F4B4
:1025900075C008F4A7C0809154028D7F6FC0CF3002
:1025A0009CE5D90709F4B6C008F4A8C0C031FCE521
:1025B000DF0709F4B3C0C131DC4509F0B1CF809128
:1025C00054028F7B5BC0C1159DE5D90709F4B4C0E7
:1025D00098F5CB3FFCE5DF0709F472C0B8F4C431CD
:1025E0009CE5D90709F4B6C008F4A2C0C531DC45A2
:1025F00009F096CF8091540282FB992790F921E04F
:10260000922790FB82F990FB83F938C0CD3F8CE58F
:10261000D80709F477C008F457C0CE3FECE5DE07D1
:1026200009F474C0809155028360CF3FDC4509F006
:1026300077CF8093550274CFC2368DE5D80709F461
:1026400096C068F4C230EDE5DE0709F48CC008F4EA
:1026500077C0C330DD4509F063CF80E085C0CE3A56
:102660009DE5D907E9F068F490915402892F8E7F97
:1026700090FF8160C63ADD4509F052CF8093540245
:102680004FCFCF3A8DE5D80789F1C03BDD4509F042
:1026900047CF90915502892F877F93FF8860C9CFDC
:1026A000809155028860C5CF809154028260E6CF48
:1026B000809154028460E2CF809154028860DECF22
:1026C000809155028160B5CF809155028260B1CF73
:1026D000809154028061D2CF0E94270680915402DB
:1026E0008068CCCF809154028C60C8CF8091550215
:1026F000877F9FCF809154028B7FC0CF80915402FF
:10270000877FBCCF809155028E7F93CF80915502F9
:102710008D7F8FCF809154028F7EB0CF80915402F5
:102720008F7DACCF0E942706809154028F77A6CF71
:1027300080915402837FA2CF809155028C7F79CF04
:1027400080915502982F909591708E7F892B90FBE8
:1027500081F96FCF0E94270690915402892F97FB31
:1027600087F980588BCF81E00E942F0CD9CE9091B1
:102770005402892F8F7E94FF806180CF81E0E3CE69
:10278000B0E0A0E0E6ECF3E10C94AB1EE82FF0E043
:10279000E054FF4FD490282F26952695269530E0BB
:1027A000F901E05AFE4F0491877010E0082E02C034
:1027B000159507950A94E2F701701127F901E05B7E
:1027C000FE4FE490F12C082E02C0F594E7940A9491
:1027D000E2F791E0E922FF24F901E05CFE4FC491A9
:1027E000D0E002C0D595C7958A95E2F7C170DD2784
:1027F0000115110519F081EE0E942A03E114F1047C
:1028000019F086EE0E942A038D2D0E94C003E11468
:10281000F10419F086EE0E9476030115110519F0F6
:1028200081EE0E947603CD2B19F08CE20E94C0034A
:10283000CDB7DEB7E7E00C94C71EEF92FF920F937F
:102840001F93CF93DF938C01F62E8AE0E82EF801D8
:102850008491882309F454C0813009F04DC0E80107
:102860002196FE018491813091F42196FE0184919C
:102870000E94C0038E010F5F1F4F8F2D815038F3D0
:10288000EFE9FFE03197F1F700C00000F7CF8230A9
:1028900039F4E8012296FE0184910E942A03EACFCE
:1028A000833039F4E8012296FE0184910E94760378
:1028B000E1CF8430F9F6E8012296FE01249190E000
:1028C00080E0FE0131962053330B2A30310548F069
:1028D000019780F2EFE9FFE03197F1F700C00000C7
:1028E000F7CFE89EA001E99E500D1124C901840F85
:1028F000951F2491EF01E5CF0E94C013E801BACFE4
:10290000CDB7DEB7E6E00C94C81ECF93DF93EB01A2
:1029100086319C4511F50E94950A9A81992399F078
:102920008A7A91E009F490E090932302811109C022
:1029300089E20E946D0A0E94D60A80E0DF91CF9161
:10294000089585E3F6CF80912302811104C089E2C6
:102950000E94750AF0CF85E3FBCF81E0EFCF0F93A4
:102960001F93CF93DF93C42FD22FFC018281882342
:10297000C9F0409326020E943C1790932502809351
:10298000240280E28C0F883040F4C77081E001C0DF
:10299000880FCA95EAF70E94C903DF91CF911F9172
:1029A0000F91089510912602141332C080912402D1
:1029B000909125020E945417883C910548F5C0E289
:1029C000CD0F1D17B9F080E2810F883040F41770E9
:1029D00081E001C0880F1A95EAF70E94D003C83041
:1029E00048F481E09D2F977001C0880F9A95EAF70F
:1029F0000E94C903802F0E94C003C83070F6D770B0
:102A000081E001C0880FDA95EAF70E94D003C5CFB4
:102A100080E28C0F883008F6C77081E001C0880F13
:102A2000CA95EAF7F2CF0F939C01CB01243F4CE506
:102A3000340759F1A8F4293DFCE53F0701F12A3D8F
:102A40004CE53407D1F1283D3C4591F406E221EEF6
:102A500041EE68ED7CE50E94AF1480E00F9108958F
:102A6000263FFCE53F07E9F0B0F0273F3C45F9F091
:102A7000FC018281882339F110922602EFCF07E210
:102A800025EE45EE69ED7CE5E6CF06E221EE40EE6F
:102A900064EF7CE5E0CF07E225EE44EE65EF7CE5F0
:102AA000DACF06E221EE42EE66EF7CE5D4CF07E214
:102AB00025EE46EE67EF7CE5CECF08E221E045EE5D
:102AC0006AED7CE5C8CF81E0C9CF90937B0180930C
:102AD0007A01089590932C0280932B020895E0913F
:102AE0002B02F0912C02309729F00190F081E02D1B
:102AF0000995089580E00895E0912B02F0912C0251
:102B0000309799F020911601222359F02091540218
:102B100027FF07C0DC012C9111962C93119726E01A
:102B20002C930280F381E02D09950895E0912B020A
:102B3000F0912C02309739F022E0DC012C930480D4
:102B4000F581E02D099508952091290230912A02FE
:102B50002817390771F090932A0280932902E09197
:102B60002B02F0912C02309721F00680F781E02DA6
:102B700009950895209127023091280228173907D6
:102B800071F09093280280932702E0912B02F0913C
:102B90002C02309721F00084F185E02D09950895ED
:102BA000FC01329680911601882321F08091540215
:102BB0009EE187FF96E080E0915008F4089521910E
:102BC0002223D1F38F5FF8CF662301F12091160104
:102BD0002223F1F02091540227FF1AC0462F469578
:102BE000469546954E3190F4677021E030E002C082
:102BF000220F331F6A95E2F7840F911DFC01828139
:102C000090E02823392381E0232B69F480E00895A4
:102C1000FC01329608962191261721F0E817F90752
:102C2000D1F7F4CF81E008959C01FC0132969FEF2B
:102C300080E04191461751F09F3F19F4411101C0C6
:102C4000982F8F5F8630A9F79F3F09F40895290FC9
:102C5000311D97FD3A95F90162830895FC01329682
:102C600008962191261303C0DF0111971C92E817E3
:102C7000F907B9F70895E62FE695E695E695EE3162
:102C800068F4E80FF92FF11D677021E030E001C012
:102C9000220F6A95EAF78281822B82830895E62FBC
:102CA000E695E695E695EE3170F4E80FF92FF11D03
:102CB000677021E030E001C0220F6A95EAF72095A5
:102CC000828128232283089520911601222339F03E
:102CD0002091540227FF03C00E943B1608950E94D2
:102CE0001416089520911601222339F020915402E0
:102CF00027FF03C00E944F1608950E942E160895C4
:102D0000FC01329680911601882351F08091540283
:102D100087FF06C08EE1DF011D928A95E9F70895CD
:102D200086E0F9CF46E050E00E94EB1E21E0892BBF
:102D300009F420E0822F089508950E949C160895BA
:102D4000811106C081E080932D020E949D16089596
:102D500082E0F9CF83E080932D020E949D160895B2
:102D60000E94A016089581E080932D020E949D1676
:102D700008950E94B3160895089508950E94BD16FF
:102D80000895089508950E94BC1608950E94C116E2
:102D90000E94500F0E94C21680E00E94020F91E034
:102DA000811101C090E0892F089585B7806885BFA3
:102DB00085B7806885BF08951F921FB61F921124A2
:102DC0008F939F93AF93BF9380912E02811113C075
:102DD0008091580290915902A0915A02B0915B02E1
:102DE0004196A11DB11D8093580290935902A09362
:102DF0005A02B0935B02BF91AF919F918F911F9048
:102E00001FBE1F90189580916002843031F10E949E
:102E1000B00210922E0288E190E020E40FB6F89400
:102E2000A895809360000FBE2093600083B7817FD8
:102E3000846083BF83B7816083BF7894889583B7AC
:102E40008E7F83BF0FB6F894A8958091600088614B
:102E500080936000109260000FBE08950E942706C4
:102E60000E94B502089582E084BD93E095BD9AEF7B
:102E700097BD80936E0008952FB7F8948091580203
:102E800090915902A0915A02B0915B022FBF089510
:102E90002FB7F894609158027091590280915A02AC
:102EA00090915B022FBF08959C014FB7F8948091D9
:102EB000580290915902A0915A02B0915B024FBF03
:102EC000821B930B089578941F921FB61F921124B2
:102ED0008F939F93AF93BF93809158029091590223
:102EE000A0915A02B0915B020196A11DB11D809381
:102EF000580290935902A0935A02B0935B02BF917B
:102F0000AF919F918F911F901FBE1F90189581E0E8
:102F10008093E00080E28093D8001092C9008FE196
:102F20009EE40197F1F700C0000087E090EBDC0120
:102F30008093690290936A02A0936B02B0936C0233
:102F400088E19CE00FB6F894A895809360000FBECE
:102F500090936000FFCF88E19CE00FB6F894A895AD
:102F6000809360000FBE90936000FFCF809152026B
:102F7000089508959C0182E08093E9009FEF80917D
:102F8000E800915085FD06C085ED8A95F1F70000B7
:102F90009111F5CF8091E80085FF0CC050E040E032
:102FA00066E070E0C9010E94FF198091E8008E7709
:102FB0008093E8000895CF93DF93EC018091160190
:102FC0008823B1F18091540287FF32C060E282E031
:102FD0008093E9008FEF9091E800815095FD06C045
:102FE00095ED9A95F1F700008111F5CF8091E800F9
:102FF00085FF1BC08091160170E050E040E0811118
:1030000004C050E040E068E070E0CE010E94FF198B
:103010008091E8008E778093E80080E2FE01A2E3D1
:10302000B2E001900D928A95E1F7DF91CF9108957A
:1030300068E081E0CDCF80932F02709331026093DE
:10304000300280916002843001F582E08093E900D3
:103050008FEF9091E800815095FD06C095ED9A950F
:10306000F1F700008111F5CF8091E80085FF0DC0D8
:1030700050E040E063E070E08FE292E00E94FF19D0
:103080008091E8008E778093E8000895BC0184E089
:103090000E941B180895BC0183E00E941B1808952C
:1030A00080915F02811109C00E948F1B0E94EC1B5E
:1030B0008091E20084608093E200089510925F02A4
:1030C00008950E94B316089560915C0281E0611139
:1030D00001C080E00E94AA1608959091600281E0EC
:1030E000943009F080E060915C020E94B01608956F
:1030F00042E061EC81E00E940B1B42E261EC82E065
:103100000E940B1B9091600281E0943009F080E0F6
:1031100060915C020E94A016089580916202833043
:1031200009F461C030F48130D1F1823009F49EC0DD
:1031300008958A3009F48AC08B3009F46FC0893051
:1031400009F050C080916102813209F04BC080913A
:10315000650290916602029708F044C08091E800F1
:10316000877F8093E8008091E80082FF37C09091CC
:10317000F3008091F200029731F48091F1008130E8
:1031800011F0863021F48091F100809352028091F9
:10319000E8008B778093E8000E943F1B23C080915A
:1031A0006102813AF9F48091E800877F8093E8001A
:1031B0008091650290916602892B61F460E282E35E
:1031C00092E070E00E944E1A8091E8008B77809325
:1031D000E800089560E090E080E0F3CF8091600225
:1031E0008111C1CF089580916102813AD9F7809110
:1031F000650290916602892BA9F78091E800877F8C
:103200008093E8008091E80080FFFCCF8091160158
:103210008093F1008091E8008E77BCCF80916102AD
:10322000813201F78091650290916602892BD1F677
:103230008091E800877F8093E8000E943F1B809187
:103240006302809316010E9427060895809161020F
:10325000813241F68091E800877F8093E8000E94E8
:103260003F1B809164028093530208958091610214
:10327000813A09F0B7CF8091E800877F8093E8001A
:103280008091E80080FFFCCF80915302C1CF84B7CA
:10329000877F84BF0FB6F894A895809160008861FD
:1032A00080936000109260000FBE80E890E00FB63F
:1032B000F89480936100909361000FBE0E94B9164C
:1032C00008950E948F1B0E94EC1BE2EEF0E08081CB
:1032D0008460808378940E946B1E08958AE091E058
:1032E0000E946A15089580916002853031F48091C2
:1032F0006002853019F00E942E1708950E9403176E
:1033000080915E02882399F30E94C616882379F380
:103310000E94E9190E942706EACF08950E94911998
:103320000895292F33272330310519F168F421300E
:10333000310509F444C02230310509F445C090E05C
:1033400080E030E020E025C02132310549F1223211
:103350003105A9F780E490E02FED32E061157105A9
:10336000C1F086EB90E029E232E06130710589F02E
:10337000E6CF99278130910581F0009729F00297D7
:10338000F1F6E0E7F1E002C0E8EDF1E0849190E0D1
:103390009F01FA01318320830895E4EAF1E0F6CF3A
:1033A00089E090E02EEE31E06115710591F389E03E
:1033B00090E027E032E06130710559F3C0CF82E13F
:1033C00090E027E132E0E5CF8BE390E02CED31E0B7
:1033D000E0CF80E189BD82E189BD09B400FEFDCF67
:1033E0008091D8008F7D8093D8008091E00082602A
:1033F0008093E0008091E00081FDFCCF0895AF92C2
:10340000BF92CF92DF92FF920F931F93CF93DF93E0
:103410006C01EB018A010E945E1BF82E811123C012
:103420000115110539F0F80180819181C81BD90B74
:10343000C80ED91EB12CA12C2097A9F08091E800CC
:1034400085FD22C08091E8008E778093E800011509
:103450001105A1F0F80180819181A80EB91EB182F9
:10346000A08285E0F82E8F2DDF91CF911F910F91D3
:10347000FF90DF90CF90BF90AF9008950E945E1BA9
:103480008823D1F2F82EEFCFF60181916F0180935E
:10349000F1002197FFEFAF1ABF0ACECFFC01809158
:1034A00067029091680286179707A0F06115710571
:1034B00029F49091E8009E779093E80090E06115E0
:1034C000710551F4911108C08091E80082FF34C069
:1034D00080E00895BC01F2CF809160028823C1F1A1
:1034E0008530C1F18091E80083FD30C08091E80013
:1034F00082FDEACF8091E80080FFE1CF8091F30068
:103500002091F200382F6115710519F0283031052E
:1035100058F091E02830310509F090E02091E80062
:103520002E772093E800CBCF81918093F1006150FA
:1035300071092F5F3F4FE7CF80916002882341F0F0
:10354000853041F08091E80083FFBECF81E008958F
:1035500082E0089583E00895FC01809167029091D4
:10356000680286179707A0F06115710529F480910C
:10357000E8008E778093E80090E06115710551F4C2
:10358000911108C08091E80082FF35C080E0089565
:10359000BC01F2CF809160028823C9F18530C9F166
:1035A0008091E80083FD31C08091E80082FDEACF80
:1035B0008091E80080FFE1CF8091F3002091F2003C
:1035C000382F6115710519F02830310558F091E058
:1035D0002830310509F090E08091E8008E778093E3
:1035E000E800CBCF84918093F1003196615071094E
:1035F0002F5F3F4FE6CF80916002882341F08530F6
:1036000041F08091E80083FFBDCF81E0089582E022
:10361000089583E00895982F973028F08F70809355
:10362000E90081E008959093E900242F762F50E07F
:10363000981731F07091EC002091ED005091F0005E
:1036400021FD02C09F5FE8CF3091EB003E7F3093B9
:10365000EB003091ED003D7F3093ED003091EB00B9
:1036600031603093EB007093EC002093ED005093A9
:10367000F0002091EE0027FDE5CF80E008958091D5
:10368000610287FF13C08091E80082FF06C080912D
:10369000E8008B778093E80004C08091600281117C
:1036A000F2CF0895809160028823D9F38091E800D9
:1036B00080FFF8CF8091E8008E77ECCF2091E40076
:1036C0003091E50095E6A9012091EC00822F8170F0
:1036D00020FF06C08091E80080FF06C080E00895CA
:1036E0002091E80022FD1AC080916002882389F0B1
:1036F000853089F08091EB0085FD0FC02091E400BA
:103700003091E50042175307F9F29150E1F684E059
:10371000089582E0089583E0089581E008950E946D
:10372000FE1B0E94061CE0EEF0E080818160808339
:10373000E8EDF0E080818F77808319BCA7EDB0E0E1
:103740008C918E7F8C9380818F7E808310925F021C
:1037500008950F931F93CF93DF930E94FE1B0E9447
:10376000061CC8EDD0E088818F77888388818068C7
:10377000888388818F7D888319BC109260021092A3
:103780005C0210925E0210925D0200EE10E0F80101
:1037900080818B7F808388818160888342E060E0C4
:1037A00080E00E940B1BE1EEF0E080818E7F808341
:1037B000E2EEF0E080818160808380818860808398
:1037C000F80180818E7F8083888180618883DF918A
:1037D000CF911F910F910895E8EDF0E080818F7EE9
:1037E0008083E7EDF0E080818160808384E082BFA8
:1037F00081E080935F020E94A91B0895E8EDF0E04C
:1038000080818E7F80831092E20008951092DA000A
:103810001092E10008951F920F920FB60F9211249B
:103820002F933F934F935F936F937F938F939F93C8
:10383000AF93BF93EF93FF938091E10082FF0BC0A2
:103840008091E20082FF07C08091E1008B7F80932E
:10385000E1000E946A1E8091DA0080FF19C0809109
:10386000D80080FF15C08091DA008E7F8093DA0047
:103870008091D90080FF96C080E189BD82E189BD39
:1038800009B400FEFDCF81E0809360020E945018D1
:103890008091E10080FF19C08091E20080FF15C097
:1038A0008091E2008E7F8093E2008091E20080614F
:1038B0008093E2008091D80080628093D80019BC88
:1038C00085E0809360020E9464188091E10084FF8B
:1038D0002BC08091E20084FF27C080E189BD82E196
:1038E00089BD89B5982F917080FFFBCF8091D8005A
:1038F0008F7D8093D8008091E1008F7E8093E100DE
:103900008091E2008F7E8093E2008091E2008160EE
:103910008093E20080915C02882309F449C084E02E
:10392000809360020E946D188091E10083FF29C09E
:103930008091E20083FF25C08091E100877F809322
:10394000E10082E08093600210925C028091E100CD
:103950008E7F8093E1008091E2008E7F8093E20071
:103960008091E20080618093E20042E060E080E0CC
:103970000E940B1B8091F00088608093F0000E94F1
:103980006118FF91EF91BF91AF919F918F917F91BE
:103990006F915F914F913F912F910F900FBE0F90BC
:1039A0001F90189519BC109260020E945E1870CF8B
:1039B0008091E30087FD93E090936002B3CF1F9264
:1039C0000F920FB60F9211242F933F934F935F9353
:1039D0006F937F938F939F93AF93BF93CF93DF9317
:1039E000EF93FF93D091E900DF708091EC00C82F36
:1039F000C17080FDC0E81092E9008091F000877FDF
:103A00008093F00078940E94231D1092E900809129
:103A1000F00088608093F000CD2BCF70C093E90058
:103A2000FF91EF91DF91CF91BF91AF919F918F91D6
:103A30007F916F915F914F913F912F910F900FBEAA
:103A40000F901F901895AAE2B0E0E9E2FDE10C9416
:103A5000AF1E81E692E02091F100FC012193CF019D
:103A6000F2E089369F07B9F70E948D188091E8002F
:103A700083FF1EC180916102909162029A3008F02A
:103A800017C1E92FF0E0EF5AF04E0C949A1E8038DF
:103A900099F0823809F00CC1809165028F708730EF
:103AA00008F006C18093E9008091EB0085FB882730
:103AB00080F91092E90006C080915D0290915E024B
:103AC000911182609091E800977F9093E800809335
:103AD000F1001092F1008091E8008E77E5C0882314
:103AE00009F4D3C0823009F0E3C0809163028111F0
:103AF000D6C0809165028F702FEF280F263008F016
:103B0000D7C08093E9002091EB0020FFC8C093301C
:103B100031F48091EB0080628093EB00C0C0909103
:103B2000EB0090619093EB0021E030E001C0220FA8
:103B30008A95EAF72093EA001092EA008091EB0060
:103B40008860EACF8111B4C0109163021F77809121
:103B5000E3008078812B8093E3008091E800877FE9
:103B60008093E8000E943F1B8091E80080FFFCCF1B
:103B70008091E30080688093E30082E0111183E08C
:103B80008093600295C08058823008F091C0809187
:103B90006302909164028C3D23E09207A1F583E0DB
:103BA0008A838AE289834FB7F894DE01139620E076
:103BB0003EE051E2E32FF0E050935700E49120FF04
:103BC00003C0E295EF703F5FEF708E2F90E0EA3018
:103BD000C0F0C7968D939D932F5F243159F74FBF47
:103BE0008091E800877F8093E8006AE270E0CE0170
:103BF00001960E944E1A8091E8008B778093E8002E
:103C000057C0C096E7CF6091650270916602AE0121
:103C10004F5F5F4F0E948E19BC01892B09F448C089
:103C20009091E800977F9093E80089819A810E94A3
:103C3000AC1AE1CF8038E1F58091E800877F80936E
:103C4000E80080915C028093F10045CF811130C083
:103C500090916302923060F58091E800877F8093B5
:103C6000E80090935C020E943F1B80915C028823D5
:103C700011F084E005C08091E30087FDFACF81E078
:103C8000809360020E94781813C080916302813093
:103C900079F481E0933009F080E080935E02109225
:103CA000E9008091E800877F8093E8000E943F1B35
:103CB0008091E80083FF0AC08091E800877F8093AD
:103CC000E8008091EB0080628093EB00AA96E3E02D
:103CD0000C94CB1E0895CF93809160028823A1F0AD
:103CE000C091E900CF709091EC00892F817090FD18
:103CF00080E8C82B1092E9008091E80083FD0E94C3
:103D0000231DCF70C093E900CF91089597FB072E34
:103D100016F4009407D077FD09D00E94D71E07FC47
:103D200005D03EF4909581959F4F089570956195CB
:103D30007F4F0895EE0FFF1F0590F491E02D099439
:103D40002F923F924F925F926F927F928F929F92AB
:103D5000AF92BF92CF92DF92EF92FF920F931F9399
:103D6000CF93DF93CDB7DEB7CA1BDB0B0FB6F8944A
:103D7000DEBF0FBECDBF09942A88398848885F848A
:103D80006E847D848C849B84AA84B984C884DF80FB
:103D9000EE80FD800C811B81AA81B981CE0FD11DDF
:103DA0000FB6F894DEBF0FBECDBFED010895AA1B7C
:103DB000BB1B51E107C0AA1FBB1FA617B70710F016
:103DC000A61BB70B881F991F5A95A9F78095909548
:103DD000BC01CD010895FB01DC0104C08D9101906F
:103DE000801921F441505040C8F7881B990B089561
:103DF000FB01DC0102C001900D9241505040D8F708
:103E00000895F999FECF92BD81BDF89A992780B5A2
:103E10000895A8E1B0E042E050E00C94351F262F51
:103E2000F999FECF92BD81BDF89A019700B40216B0
:103E300039F01FBA20BD0FB6F894FA9AF99A0FBE5E
:103E400008950396272F0E94101F0E940F1F252FF1
:103E50000E94101F242F0C94101F0196272F0E94E0
:103E6000101F0C940F1FDC01CB01FC01F999FECF50
:103E700006C0F2BDE1BDF89A319600B40D924150F2
:103E80005040B8F70895F894FFCF12041204430489
:103E90004304D004EC0472047204F7046805770547
:103EA0007705471D6F1D581E6F1D581EA21DC31D8F
:063EB000581E1A1E261E1A
:103EB600E501280850011E0A1401B617DB17BA17C8
:103EC6004B184618B91701E200E900EA00B500B63A
:103ED60000B700CD008301CC008A01920194012134
:103EE60002230224022502260227022A02B300B474
:103EF600006F007000818283E200E900EA00B500ED
:103F0600B600B700CD008301CC008A01920194016E
:103F16002102230224022502260227022A02B300D6
:0A3F2600B4006F0070008182830078
:00000001FF
