:100000000C9494010C94B1010C94B1010C94B101C5
:100010000C94B1010C94B1010C94B1010C94B10198
:100020000C94B1010C94B1010C94EB1B0C94BF1C0B
:100030000C94CF160C94B1010C94B1010C94B10145
:100040000C94B1010C94B1010C94B1010C94B10168
:100050000C94B1010C9456170C94B1010C94B1019D
:100060000C94B1010C94B1010C94B1010C94B10148
:100070000C94B1010C94B1010C94B1010C94B10138
:100080000C94B1010C94B1010C94B1010C94B10128
:100090000C94B1010C94B1010C94B1010C94B10118
:1000A0000C94B1010C94B1010C94B10101043833EA
:1000B00034357C000104393837367C00010439338B
:1000C00037367C00010431323334357C00000000C7
:1000D000000000000000002A2B28000000000000A3
:1000E0000000000000000000000029000000002CBB
:1000F0001E3420212224342627252E362D3738275A
:100100001E1F202122232425263333362E37381F65
:100110000405060708090A0B0C0D0E0F1011121327
:100120001415161718191A1B1C1D2F3130232D35C5
:100130000405060708090A0B0C0D0E0F1011121307
:100140001415161718191A1B1C1D2F3130354C00A9
:10015000000000000000000000000000000000009F
:10016000000000000000000000000000000000008F
:100170000000007E0F00D4FFFFFFC70000007832B0
:10018000034D006900630072006F0073006F00662A
:1001900000740020005700690072006500640020B0
:1001A000004B006500790062006F0061007200641E
:1001B0000000002C034D006900630072006F0073A3
:1001C000006F0066007400200043006F0072007032
:1001D000006F0072006100740069006F006E000023
:1001E000000403090409023B00020100A0FA09040B
:1001F000000001030101000921110100012240005A
:100200000705810308000109040100010300000043
:1002100009211101000122B6000705820320000117
:1002200012010002000000085E04520701000102F2
:10023000000105010902A10185020901A1000509CA
:10024000190129081500250195087501810205018C
:10025000093009311581257F950275088106093815
:100260001581257F950175088106050C0A38021550
:1002700081257F950175088106C0C005010980A10F
:1002800001850319012AB700150126B700950175EC
:10029000108100C0050C0901A101850419012AA0E3
:1002A00002150126A002950175108100C005010903
:1002B00006A1018506050719E029E7150025019526
:1002C00008750181020507190029EF150025019520
:1002D000F07501810205081901290595057501913F
:1002E00002950175039101C005010906A1010507E9
:1002F00019E029E71500250195087501810295018E
:10030000750881010507190029FF150026FF0095D2
:1003100006750881000508190129059505750191E3
:1003200002950175039101C011241FBECFEFDAE0E1
:10033000DEBFCDBF11E0A0E0B1E0E6E7FEE302C022
:1003400005900D92AA37B107D9F722E0AAE7B1E0EC
:1003500001C01D92A836B207E1F70E94B40F0C94B9
:10036000231F0C940000089560E084EC90E00E944C
:10037000101483E50E94B30383E50E94B30360E099
:100380008CEB90E00E9410148DEE0E94B3038EEE71
:100390000E94B30360E084EB90E00E9410148FEEA3
:1003A0000E94B30380EF0E94B30360E08CEA90E008
:1003B0000E94101483E70E94B30383E70E94B303F3
:1003C000089581E0089581E008950E94E101089573
:1003D00008950E94E8010895A5E0B0E0E2EFF1E0A1
:1003E0000C948F1E49835A833091810189819A81AF
:1003F000311119C0662399F0222389F00E94650704
:10040000182F682F89819A810E944F0769817A810C
:10041000812F0E94BA0D2596E3E00C94AB1E0E943A
:100420005A07182FF3CF0E94650769817A81F1CFAF
:10043000FC01262F408151816281738184810E9459
:10044000EC01089581E00895CF93DF93EC0160E023
:100450000E941802BE010E94E901DF91CF91089528
:100460000E94EF0E08950E94F20E089508950E94D2
:100470001A060E9436022FEF84E39CE02150804050
:100480009040E1F700C0000008950E9437020E94EA
:100490007A1708950E9437020E948B1708950F93D0
:1004A0001F93CF93DF938C0161E00E941802EC014F
:1004B000B8010E94E501811106C080E0DF91CF9173
:1004C0001F910F910895B801CE010E94061588234F
:1004D000A1F3B801CE010E944512882371F3B8013F
:1004E000CE010E947814882341F3F8018281882389
:1004F00061F0CB35FDE5DF0701F158F4C115ECE5FE
:10050000DE0791F0CF3DDC4591F0C8010E94E30188
:10051000D5CFCD358DE5D80769F090F0C83ADD45E7
:10052000A1F70E944A02C9CF0E944502C6CF0E948D
:100530001F0CF7CF0E945D0BE8CF0E94670BE5CF41
:100540000E946B0BE2CF0E94B1160E94C002089578
:100550000E94C4020E94B616089508950E94AD023A
:10056000089581E008950E94B10208950895CF93FF
:10057000C82F0E94AE028C2F0E94B302CF91089523
:1005800080E00E94B70208950E9462150E94B7029F
:100590000895CF930E946215C82F80917C018C171B
:1005A00079F0C0937C010E943B1760937D017093AA
:1005B0007E0180937F01909380018C2F0E94B7026F
:1005C000CF910895ABE0B0E0E8EEF2E00C94901E1D
:1005D0004F83588769877A878B8761110E94A80AA1
:1005E0001E821D8285E0FE013796DE011196019084
:1005F0000D928A95E1F78C819D81892B61F4498167
:100600005A816B817C818D819E810E94D1092B96BC
:10061000E2E00C94AC1E89819A8189238F3F79F3A3
:10062000CE0101960E9422028111E9CFF0CFFC0198
:10063000808191810E9497070895CF93C82F8823C6
:10064000B9F08CEF8C0F813AA8F46C2F80910001E7
:10065000909101010E94D715882329F08C2F0E94C8
:10066000680A0E94C90A8C2F0E94600A0E94C90A67
:10067000CF91089580E28C0F883048F4C77081E0F4
:1006800001C0880FCA95EAF70E948B0AEFCFEBE50D
:10069000EC0FE33040F4F0E0EB5BFE4F808190E044
:1006A0000E949715E5CFE8E5EC0FE73150F4F0E054
:1006B000EE0FFF1FE95EFE4F808191810E94AD1514
:1006C000D7CFCD3EA8F28C2F0E9438100E940B117C
:1006D000CFCF882379F19CEF980F913A28F40E94AC
:1006E000680A0E94C90A089590E2980F983050F461
:1006F000877091E001C0990F8A95EAF7892F0E94CF
:10070000910AEFCF9BE5980F933028F490E080E0BA
:100710000E949715089598E5980F973128F490E076
:1007200080E00E94AD1508958D3E20F00E94921049
:100730000E940B1108951F93CF93DF93182FEB01A5
:100740000E941D03209739F4812F0E946903DF91D5
:10075000CF911F9108958FE99FE00197F1F700C0B5
:1007600000002197EFCF70E060E0893311F460E57D
:1007700070E00E949B030895882321F00E948B0A59
:100780000E94C90A0895882321F00E94910A0E94BC
:10079000C90A0895B0E0A0E0E0EDF3E00C94891EF2
:1007A0006C01D62FC72FFC011281F580F2949FE0D7
:1007B000F9220E94810AE82E8823B9F0E12E112344
:1007C000A1F08C2F807F803421F080E28D0F883063
:1007D000D0F08091540282FF16C082E00E942C0B60
:1007E0000E94810A91E0E82EE926BC2EB2948FE0A7
:1007F000B822FBE0FB1508F468C0EB2DF0E0EB5DE0
:10080000F04E0C947A1EE12CF0CF0C2F0F70C07FAD
:1008100011F00295007F112399F0002359F080E236
:100820008D0F883010F0D11107C0802F0E948B0AE5
:100830000E94C90A8D2F41C0802F0E949B0AF8CFC9
:100840008D2F0E946903002309F43FC080E28D0FC1
:10085000883010F0D11104C0802F0E94910A03C08B
:10086000802F0E94A10A0E94C90A2FC00C2F0F706E
:10087000C07FC03211F00295007FDD2381F0D130BE
:1008800009F463C0112309F46DC0FF2009F463C0AB
:10089000F601858180FFCECF8F7085835CC080910B
:1008A000540282FD33C0112359F0002329F0802F18
:1008B0000E948B0A0E94C90A80E00E941D0305C0A5
:1008C00080E00E9469030111C7CFEB2DE850FF0BB8
:1008D000349720F40E9462150E94B702EE2089F03E
:1008E0000E947D0A80FD0DC0F60112820E94770AE7
:1008F0000E94AD06C6010E94DA050E94770A0E9496
:10090000BD06CDB7DEB7E9E00C94A51E112389F032
:10091000F11006C00E94AB0A802B0E94BC03D5CF09
:1009200021E0F212F7CF0E94AB0A802B0E94B20A9C
:10093000CCCFF11006C00E94BF0A802F0E94C303D3
:10094000C4CF31E0F31609F2F6CF112331F085E080
:100950008F1508F4BACF802FE0CF94E09F1508F4EC
:10096000B4CFEBCFFF2049F3D93349F4FFEF27EEA3
:1009700033E0F15020403040E1F700C000008D2FFF
:100980000E946903A2CF8C2F86958695837069F0AB
:10099000813009F09ACF8D2F9C2F9370111102C0D6
:1009A00090E080E00E94AD1590CF8D2F9C2F93702A
:1009B000111102C090E080E00E94971586CF8D2F24
:1009C000112329F00E9438100E940B117ECF0E9443
:1009D0009210FACF8C2F8370A1F5111176CF4D2F85
:1009E000429546954770440F440F2D2F2F7030E0ED
:1009F000042E02C0220F331F0A94E2F790E080E039
:100A0000D4FF09C08FE090E002C0880F991F4A957B
:100A1000E2F780959095C695C695C370822B932B6F
:100A2000C23049F058F4C13019F00E947B064DCF16
:100A30000E9472064ACF0E94840647CF0E946F062A
:100A400044CF8695112311F08C2F8170882309F4EF
:100A50003CCF4D2F429546954770440F440F2D2FA4
:100A60002F7030E0042E02C0220F331F0A94E2F7E9
:100A700090E080E0D4FF09C08FE090E002C0880FD2
:100A8000991F4A95E2F780959095C695C695C370D3
:100A9000822B932BC23049F058F4C13019F00E94D8
:100AA000E80613CF0E94DF0610CF0E94F1060DCF9B
:100AB0000E9493060ACFCF70112329F08C2F0E9439
:100AC000AD068D2F2ACF8D2F0E94C3038C2F0E943D
:100AD000BD06FBCED23F51F160F4D03FB9F0D13F1B
:100AE00081F0112309F449C0F110A4CE8C2F8F712D
:100AF00021C0D33F11F1D43FA1F78091540282FD70
:100B000026C08C2F8F71112311F314C0112349F0CB
:100B100084E08F1508F4D9CE8C2F8F710E94CF06F8
:100B2000D4CE95E09F1508F4D0CEF6CF8C2F8F71E0
:100B30001111CDCF0E94AD06C8CE112329F08C2F04
:100B40008F710E94A106C1CE0E949C06BECE1123C9
:100B500049F0CF718C2F0E94AD0663E08C2F0E946C
:100B60000E0BB3CE81E00E942C0BE1E0EF1508F0F4
:100B7000ACCE82E00E942C0BA8CEF110F5CE8C2FCB
:100B80008F71A5CF0F931F93CF93DF93EC016881F3
:100B900079818A810E94A2078C010E94FA060E9434
:100BA0006E06B801CE010E94CA03DF91CF911F915A
:100BB0000F910895CF93DF93EC018B819C81892B5A
:100BC00029F08881998189238F3F51F4DF91CF915A
:100BD0000895CE010E94C205CE010E942402F6CFE4
:100BE000CE010E944F028111F4CF0E94810A882316
:100BF00069F38A81882351F38091540282FFE6CF02
:100C000082E00E942C0BE2CF90E080E00E949715DA
:100C100090E080E00E94AD150E94A80A0E94C90AD7
:100C20000E9427110E940B1108950E94700A0E94D1
:100C3000040608950E94980A0E9415060895929548
:100C40009F70963091F058F4925F9F70923058F4F4
:100C5000803F19F030F4883E30F481E008959A5FC7
:100C6000F4CF843FD1F380E00895883EB0F3813F14
:100C7000D1F7F3CFFC0183819481892B29F0808106
:100C8000918189238F3F11F480E0089580819181C3
:100C90000E9497070E941F060895A5E0B0E0E3E5D3
:100CA000F6E00C94901E2596E2E00C94AC1EA6E0B3
:100CB000B0E0EDE5F6E00C94901E2696E2E00C9490
:100CC000AC1E08950E94610608950E9462069093EA
:100CD0008901809388010E940406089508950E9466
:100CE000650608952091880130918901822B932B0C
:100CF0000E94650608952091880130918901822320
:100D000093230E94650608952091880130918901FE
:100D1000822793270E94650608950E946106089520
:100D20000E948D0608950E949006909387018093FB
:100D300086010E940406089590E080E00E949306D8
:100D4000089521E030E0A90102C0440F551F8A95A3
:100D5000E2F7CA010E949306089521E030E002C044
:100D6000220F331F8A95E2F78091860190918701C7
:100D7000822B932B0E949306089521E030E002C05D
:100D8000220F331F8A95E2F72095309580918601D6
:100D900090918701822393230E949306089521E076
:100DA00030E002C0220F331F8A95E2F7809186015E
:100DB00090918701822793270E949306089520919E
:100DC000860130918701822B932B0E949306089510
:100DD0002091860130918701822393230E949306FC
:100DE00008952091860130918701822793270E94E0
:100DF000930608950895262F277091E001C0990F5A
:100E00002A95EAF723E0769567952A95E1F7660F2C
:100E1000771F660F771FFA01E60FF71F50E040E0DB
:100E2000682F70E08191DF0111979B01042E02C0B1
:100E3000369527950A94E2F72170219528272923D2
:100E400028272C934F5F5F4F4430510559F7089581
:100E5000A82FA77023E0969587952A95E1F7880F2C
:100E6000991F880F991FFB01E80FF91F50E040E020
:100E700080E0219130E00A2E02C0369527950A9431
:100E8000E2F721703327042E01C0220F0A94EAF7FB
:100E9000822B4F5F5F4F4430510559F70895262F3D
:100EA000892B39F442E851E070E060E0822F0E9423
:100EB000FB060895892B39F462E871E090E080E048
:100EC0000E942807089580E00895B0E0A0E0EBE6D6
:100ED000F7E00C94891E7C01009186011091870136
:100EE0008091880190918901082B192BCFE0D0E0E7
:100EF000CC24C394D12CBC2EC6010C2E02C0880F6A
:100F0000991F0A94E2F780239123892B49F42197B2
:100F100090F7B12C8B2DCDB7DEB7E9E00C94A51E70
:100F2000B7018C2F0E94C80D019789F3F3CFCF939F
:100F3000DF93EC010E946507BE010E94C80DDF919E
:100F4000CF9108951F93CF93DF93EB01909181018F
:100F5000992339F0CB010E949707DF91CF911F9120
:100F60000895882369F0CB010E946507182F682F28
:100F7000CE010E944F07BE01812F0E94C80DEDCF08
:100F8000CB010E945A07182FF6CF1F93CF93DF9300
:100F9000C0918A0116E080918B018C1304C0DF910F
:100FA000CF911F910895D0E01C9FF0011D9FF00D7F
:100FB0001124E457FE4F4081518162817381848105
:100FC00095810E9457062196C770E5CF4091BC01DC
:100FD0005091BD016091BE017091BF018091C0012F
:100FE0009091C1010E94570608951F93CF93DF93FC
:100FF0008091C101807F09F049C08091BE018823A2
:1010000009F444C080918A01C0918B016091BC01B8
:101010007091BD01A091BF01B091C001D62FD7231F
:1010200016E0C81799F190E0109711F0DF3F19F41E
:1010300001968770F6CF189F9001199F300D1124EB
:10104000F901E457FE4F41814713F2CF4081461327
:10105000EFCF42814111ECCF438154814A1B5B0B9E
:10106000483C510528F78091C1018F7080618093C1
:10107000C101F901EF56FE4F80818F70806180833E
:101080008CEB91E00E94DA050E94C507DF91CF91B9
:101090001F910895A1E1B0E0E0E5F8E00C94881E0E
:1010A0008C0185E0F801DE011D9601900D928A9574
:1010B000E1F7F801E2808CEBC82E81E0D82E609138
:1010C000BF017091C0016115710509F44EC1909185
:1010D000BC012091BD01892F82238F3F09F445C1B6
:1010E00040815181A380B480F090BE01F501E61BE0
:1010F000F70BFF2009F4EAC08091C101382F307F3F
:10110000E83CF10508F0A3C031116DC0FE2C251399
:1011100016C0941314C0E11012C08F7080618093C8
:10112000C1010E94E607C6010E94DA058091C10153
:10113000F80185838F2D6196EAE00C94A41EA1141A
:10114000B10429F0842F85238F3F09F027C180E067
:10115000F82FF170DF2E80FF3CC080918A01209132
:101160008B0136E0821315C04D875E878D859E8585
:101170000E949707292F22952F702230F0F02430FB
:1011800018F59F70F1F0F8019581907FD1F4D12C82
:101190001EC090E0389FF001399FF00D1124E457F4
:1011A000FE4F6181651306C06081641303C06281D4
:1011B000E6120FC001968770D5CF9F7011F088237B
:1011C00031F3805E883018F3C8010E94DA05FD2CE7
:1011D000B1CFEE2009F4AECF8091C1018160809340
:1011E000C101F12CA7CF251306C0941304C0F80148
:1011F000EE2009F487C0C8010E943A06882319F13D
:10120000EE2009F18091C101803270F02091BC0183
:101210003091BD0138872F831986BB86AA868C87BB
:10122000CE0107960E94DA0586E0F801ACEBB1E04A
:1012300001900D928A95E1F70E94F5070E94E6075A
:10124000FF24F39477CFC8010E94DA05F9CF31115A
:1012500013C07A2DB98AA88A6E2D89890E944D06FD
:101260008CEB91E00E94DA0586E0F60111928A95F6
:10127000E9F70E94E607B5CF25130FC094130DC000
:10128000E1100BC0F8018583C8010E94DA0586E0F1
:10129000F60111928A95E9F74DCFC8010E943A06EE
:1012A000882389F2EE2079F28091C101803208F41E
:1012B000BBCF2091BC013091BD013A8329831B82B1
:1012C000BD82AC828E83CE010196ACCFE83CF105A5
:1012D00008F03EC0FE2CEE2009F4B5CF25132AC03D
:1012E000941328C08091C10180FD1BC0982F907F6E
:1012F000C1F0F8018583903F31F0982F907F905F87
:101300008F70892B8583C8010E94DA0586E0F80179
:10131000ACEBB1E001900D928A95E1F70E94E607EF
:1013200009CF86E0F801ACEBB1E001900D928A950F
:10133000E1F700CFC8010E943A06811175CF809174
:10134000C10181608093C101C8010E94DA05F2CE1B
:101350007A2DB98AA88A6E2D89890E944D0686E069
:10136000F60111928A95E9F7D9CFEE2009F46BCFF7
:10137000C8010E943A06F82E882309F464CF86E05B
:10138000F801ACEBB1E001900D928A95E1F78CEB9E
:1013900091E00E9417030E94F507C0CF81E08E25DF
:1013A000D7CEACE0B0E0E7EDF9E00C948F1E4F83B0
:1013B000588769877A878B879C87CE0107960E941A
:1013C0004A08882369F08A859B85892B39F04F81EB
:1013D0005885842F85238F3F09F06BC016E05FC0CE
:1013E00086E0FE013796DE01119601900D928A95F6
:1013F000E1F78A859B85892B89F38F8198858923DD
:101400008F3F61F320918B0130E0C9010196877015
:10141000992740918A014817190671F40E941A060B
:1014200010928B0110928A0186E0ECEBF1E0DF0173
:101430001D928A95E9F7D2CF96E0929FD001939FB3
:10144000B00D1124A457BE4FFE01319601900D92AC
:101450009A95E1F780938B010E94C507BFCF819FCA
:10146000C001112484579E4F0E944A088823E9F046
:10147000E0918A011E9FF0011124E457FE4F408144
:10148000518162817381848195810E945706809188
:101490008A0190E001968770992780938A01809154
:1014A0008A0190918B018913DACF2C96E3E00C949A
:1014B000AB1E69857A858B859C850E9457068ECFE9
:1014C000682F80910001909101010E9457160895A4
:1014D000682F80910001909101010E946516089586
:1014E00080910001909101010E94731608958091EE
:1014F000E20185958595859508958091E201877033
:1015000008959091E201977081E009F480E00895D8
:1015100080910502089590910502892B8093050220
:10152000089580959091050298239093050208955F
:1015300010920502089590910402892B8093040271
:101540000895809590910402982390930402089541
:101550001092040208958091E301089508950E9475
:10156000AE0A08959091540292FF08C09091E30151
:10157000981721F08093E3010E94AF0A08958091AB
:10158000E301882329F01092E30180E00E94AF0A72
:101590000895CF93DF93E0910001F09101018091D4
:1015A00005028083E0910001F0910101808190911A
:1015B0000402892B80839091E301992381F0E091CB
:1015C0000001F09101018081892B808380910001CD
:1015D000909101010E94C31581110E94BF0AC09120
:1015E0000001D091010140E250E062EC71E0CE01D7
:1015F0000E94CB1E892B59F080E2FE01A2ECB1E0E3
:1016000001900D928A95E1F7CE010E946F15DF914E
:10161000CF91089508950E940A0B08959091540265
:1016200092FF11C098E0899F90011124622B609372
:10163000E2010E94AD068091E20185958595859530
:101640000E940B0B08950E94AD0608951092E201CE
:1016500080E00E940B0B08959091E2018095892310
:101660008093E201282F277091F4282F082E000C78
:10167000330B9217130659F09091540292FF07C052
:101680008595859585950E94BD060E94260B089537
:101690009091540292FB222720F9281769F080FBD1
:1016A00092F99093540280915302909154020E94B7
:1016B000990B82E00E942C0B08958091540282FBCA
:1016C000882780F991E089270E94480B089581E0DE
:1016D0000E94480B089580E00E94480B08956FEF28
:1016E0007FEF90E080E00E940D1F089590E080E081
:1016F0000E94E91E21E0883E9E4F09F020E0822FE3
:10170000089582E090E00E94E11E089583E090E059
:101710000E94E11E0895CF9384E090E00E94E11EB4
:10172000C82F82E290E00E94E11E982F8C2FCF916B
:101730000895CF93C92F682F84E090E00E94EF1E98
:101740006C2F82E290E00E94EF1ECF910895AB01D2
:10175000BC018FE090E00E94011F0895AB01BC0125
:1017600083E190E00E94011F089560E070E0CB01EA
:101770000E94AE0B089560E070E0CB010E94A70BC1
:101780000E94B50B089568EE7EEF90E080E00E9425
:101790000D1F60E082E090E00E94EF1E60E083E0B9
:1017A00090E00E94EF1E109289011092880160E083
:1017B00084E090E00E94EF1E64E082E290E00E94EC
:1017C000EF1E60E085E090E00E94EF1E60E086E0A2
:1017D00090E00E94EF1E6FEF87E090E00E94EF1E06
:1017E00040E050E0BA0188E090E00E94011F60E014
:1017F0008DE090E00E94EF1E40E050E0BA0188E1E9
:1018000090E00E94011F60E087E190E00E94EF1EDF
:1018100040E050E0BA018CE190E00E94011F70E0CE
:1018200060E080E290E00E940D1F40E050E0BA01CD
:1018300088E190E00E94011F0E94BB0B08950E9466
:10184000C30B0895682F8EE090E00E94EF1E08956C
:101850000E943B1760930D0270930E0280930F025B
:10186000909310026093090270930A0280930B0216
:1018700090930C020895089508950E943C0C0895D9
:1018800008950E94400C089582EB9EE00E94581536
:101890000E943B0C0E943D0C089581E008950E9437
:1018A0004D0C0895089508950E94520C0E94530C07
:1018B00008950E94D10E0E94B60208950E94261734
:1018C0000E94370F0E94590C0E94410C0895AAE013
:1018D000B0E0EDE6FCE00C948E1E0E94430F1091E8
:1018E000080280E00E94F50E181326C00E942F17F0
:1018F0008C01809106029091070208171907A1F048
:101900008FEF89838A831B820E942F178160782F33
:101910009D838C8349815A816B818D810E94E20273
:1019200010930702009306020E9449110E94C90207
:101930002A96E4E00C94AA1E8091110281FD0E9477
:10194000FB0E0E944F0C082F80E00E94F50E182F0E
:1019500080910802912F9827181303C00E94280C29
:10196000E3CF90FF13C0002389F01E821F82812FD6
:10197000817088870E942F178160782F9A878987C6
:101980004E815F8168858A850E94E2021093080279
:10199000E5CFCF93DF930E94CD0DEC01811521E5BA
:1019A000920708F042C0811530E5930708F09FC008
:1019B000883E910530F5803E910508F094C0883A44
:1019C000910588F4853A910508F086C0813091052B
:1019D00009F489C0009709F486C0049708F083C011
:1019E000D0E0C0E080C08F3B9105D0F7C85AD0E06E
:1019F000CC0FDD1FC85BDE4F0990D881C02DD464A9
:101A000072C0811540E2940750F4C11581E0D807F7
:101A100008F069C0CD3ED10518F3D06564C08115CA
:101A20009044F0F2DF70D06A5EC0811535E593070F
:101A300018F5811544E5940708F085C0C11583E5C4
:101A4000D80708F06CC0C11522E5D20708F462C0BF
:101A5000CE018370992721E030E002C0220F331FAE
:101A60008A95E2F7C695C69580E2C89FE0011124E9
:101A7000C22BD32BDC6837C0811539E59307A8F456
:101A8000811548E5940708F063C0C11586E5D807BD
:101A900008F0A6CF8C2F0E946F0EC82FD0E0DC2F4D
:101AA000CC27CC27DF71D0621EC081152AE59207B2
:101AB00008F453C090568115904208F091CF8D2FB5
:101AC0008F710E946F0E90E0982F882788279F7152
:101AD0009C012C2BE901E7CFC55AD0E0CA58DE4F54
:101AE000C881D0E0D064CE01DF91CF91089583709A
:101AF000992721E030E002C0220F331F8A95E2F7D8
:101B0000C695C69540E2C49FE0011124C22BD32B99
:101B1000DD68E9CFDC2FCC27C16FD06AE4CFCE01DE
:101B20008370992721E030E002C0220F331F8A958D
:101B3000E2F7C695C69540E2C49FE0011124C22B8E
:101B4000D32BDA68D0CFD82FCC27C46FD06ACBCFB5
:101B5000D82FCC27C06FD06AC6CF8F700E946F0E6F
:101B600034E0D695C7953A95E1F7CF709C2FEC01FC
:101B7000D069B9CF672B49F4E82FF0E0EE0FFF1FD3
:101B8000E353FF4F85919491089580E090E008958C
:101B90000E94BA0D0E94C90C089582389105B9F1CE
:101BA000B0F48133910509F47DC048F48932910580
:101BB00009F46DC08A32910509F47BC0089585331C
:101BC000910509F45FC08933910509F10895833EB9
:101BD0009105D9F138F4803E910529F1823E9105B5
:101BE00079F10895863E9105D9F1873E910509F472
:101BF0003EC0843E910541F52091540221FF24C04E
:101C00008091530284FD19C087EE90E008952091E1
:101C10005302237009F05AC02091540223FF14C0CC
:101C200089E290E008952091530220FD38C0309160
:101C3000540230FF09C024FF43C090E080E00895C3
:101C40002091530222FDF7CF08952091530222FDE7
:101C50003AC03091540230FD39C024FFF5CFEDCFAA
:101C60002091530223FFF0CF24FDE7CFCDCF209169
:101C7000530223FD2EC03091540231FFEECF84EE8B
:101C800090E008952091530225FFDECFC9CF209127
:101C9000530225FD21C02091540223FFD5CF89E3B3
:101CA00090E0D2CF2091530226FFCECF8AE290E07F
:101CB00008952091530226FFC7CF81E390E0089555
:101CC00083EE90E0089582EE90E0089580EE90E03B
:101CD000089586EE90E0089585E390E00895909150
:101CE000530292FF06C0282F28712830F9F4877F0D
:101CF000846093FF06C0282F28712831F1F4877E75
:101D000084612091540220FF06C0382F387138308A
:101D1000D9F4877F816021FF06C0282F28712831E0
:101D2000D1F4877E816194FD877E0895282F2471E8
:101D30002430F9F68B7F8860DCCF282F2471243182
:101D400001F78B7E8861DDCF382F3171313019F783
:101D50008E7F8860E0CF282F2171213121F78E7E80
:101D60008861E1CF80E008950E946F0B08950E9482
:101D7000430F2FEF86E791E0215080409040E1F73C
:101D800000C000000E94430F80E00E94F50E80FF1B
:101D900004C00E94B40E0E947A1708950E94B70EE4
:101DA00008950E94760B811102C00E941F0C0E94B0
:101DB000810B809311020E948B0B909354028093AD
:101DC00053020E94CE0E0E94860B90E00E946F0686
:101DD00080918601909187010E94900608950E944B
:101DE000B30108950E94B4010895E82FF0E0EA5A83
:101DF000FD4F80810895089580EA8A95F1F708954E
:101E000000C008950E94FC0E0895F89425982D9A1C
:101E1000789408950E94050FF89457985F9A7894E3
:101E20000895EF92FF921F93CF93DF937C01162FBB
:101E3000F894259A2D9878940E94000FC9B1D0E0AB
:101E4000CC0FCD2FCC1FDD0B81E0C8270E94050FE2
:101E50006C2F6170812F0E94020FF701E10FF11DBD
:101E6000C083DF91CF911F91FF90EF9008950E9462
:101E70000A0F109256021092550281E00E94680FDC
:101E80000E9430020895A1E0B0E0E9E4FFE00C9484
:101E90008F1E198260E0CE0101960E94110F909171
:101EA0005502898121E0981301C020E098138093A6
:101EB000550241E066E572E085E592E00E94690F17
:101EC000182F0E943302812F2196E3E00C94AB1E61
:101ED0000895CF92DF92EF92FF920F931F93CF93CB
:101EE0006C017B01042F222349F081E080931402CE
:101EF0000E942F179093130280931202C091140234
:101F0000C1110AC0C0E08C2FCF911F910F91FF909B
:101F1000EF90DF90CF90089580911202909113027C
:101F20000E944717059770F310E0A801B601C7019A
:101F30000E94CB1E892B41F0A801B601C7010E9467
:101F4000D81E10921402DFCFC0E0FBCF0E944119CF
:101F50000E945E0C0E944E1908950E9453190E941F
:101F6000670C0E946D1908950E94C8160E942719D7
:101F70000E94440C0E94A60F0E94AD0F0E94540CB8
:101F8000FBCF80911B0280FF0DC06091070170E0C4
:101F9000660F771F6038710570F56115710569F17D
:101FA000862F089581FF07C06091070184E0689F34
:101FB000B0011124EFCF6091070182FD0AC080912A
:101FC0001A028823A9F02091060160910701821767
:101FD00010F088E0ECCF869FC001112433E0880F19
:101FE000991F3A95E1F7622F70E00E94661ED2CFEA
:101FF00068E070E0D5CF8FE7089581E00895809183
:102000001B0280FF0CC06091030170E0759567951D
:10201000759567956115710549F1862F089581FFC2
:1020200006C06091030170E075956795F3CF6091EC
:10203000030182FD0BC0909119029923A1F06091D8
:10204000020180910301961738F0682F70E0603824
:10205000710500F38FE70895899FC001112470E096
:102060000E94661EF4CF61E070E0D7CF81E0089552
:102070008D3E31F40E94C10F819580931F02089517
:102080008E3E19F40E94C10FF8CF8F3E31F40E94AA
:10209000C10F819580931E020895803F19F40E941C
:1020A000C10FF8CF893F29F40E94FF0F80932002CF
:1020B00008958A3F21F40E94FF0F8195F7CF8B3F4F
:1020C00031F40E94FF0F81958093210208958C3F87
:1020D00019F40E94FF0FF8CF9FE0980F983070F42A
:1020E000815F990B21E030E001C0220F8A95EAF769
:1020F00080911D02822B80931D0208958D3F31F443
:1021000080911B02816080931B0208958E3F21F411
:1021100080911B028260F7CF8F3FB9F780911B023D
:102120008460F1CF40911E028D3E59F480911F02D0
:1021300087FF0DC010921F0241110BC010921A02AE
:1021400008C08E3E81F480911F0218169CF3442330
:1021500081F08091200290912102892B09F05AC0D0
:102160001092190208958F3E49F447FFF0CF109264
:102170001E0280911F028111ECCFE0CF803F19F445
:102180001416ACF3E4CF90912002893F29F419167C
:10219000F4F610922002DBCF8A3F19F497FFD7CFD5
:1021A000F8CF909121028B3F29F497FFD0CF109266
:1021B0002102CDCF8C3F19F41916CCF3C8CF9FE084
:1021C000980F983090F4815F990B21E030E0B901CD
:1021D00002C0660F771F8A95E2F7CB018095909138
:1021E0001D02892380931D02B2CF8D3F31F480916F
:1021F0001B028E7F80931B02AACF8E3F21F4809119
:102200001B028D7FF7CF8F3F09F0A1CF80911B027A
:102210008B7FF0CF08950E942F179C0190911E0292
:1022200080911F02982B21F03093180220931702FF
:102230009091200280912102982B21F03093160278
:10224000209315028CE192E00E948915089586E0A2
:10225000ECE1F2E0DF011D928A95E9F710921A0293
:102260001092190210921B020895FC0182818111C3
:102270000EC0838181110BC08481811108C091E05F
:102280008581811101C090E0892F8170089581E0DE
:10229000FCCFA6E0B0E0EFE4F1E10C948F1E86E005
:1022A000ECE1F2E0DE01119601900D928A95E1F7E2
:1022B00010921E0210921F02109220021092210210
:1022C0008B819C81892B89F0809117029091180253
:1022D0000E944717AC0190911A029923C9F180918D
:1022E00008018417150608F440C08D819E81892B52
:1022F00091F080911502909116020E944717AC014F
:1023000090911902992309F471C0809104018417F6
:10231000150608F479C0BE016F5F7F4F8CE192E033
:102320000E948516811105C08CE192E00E94351152
:1023300081110E940B1186E0FE013196ACE1B2E002
:1023400001900D928A95E1F72696E3E00C94AB1E7E
:10235000209109018AE0289F900111242417350754
:1023600020F69F5F90931A0202C09F3FD1F71B8116
:10237000112359F00E94C10F9FEF11160CF491E048
:10238000899F802D112480931E021C81112359F0F6
:102390000E94C10F9FEF11160CF491E0899F802DD0
:1023A000112480931F0230911E02332309F49DCF24
:1023B00020911F02222309F498CF45EB3403C0017A
:1023C0001124992359F090931E0245EB24039001A8
:1023D0001124332339F030931F0287CF81E080939B
:1023E0001E02F3CF81E080931F027FCF2091050171
:1023F0008AE0289F900111242417350708F08BCF1D
:102400009F5F9093190202C09F3FD1F71D81112356
:1024100059F00E94FF0F9FEF11160CF491E0899F75
:10242000802D1124809320021E81112359F00E94D7
:10243000FF0F9FEF11160CF491E0899F802D11245E
:102440008093210230912002332309F464CF20913C
:102450002102222309F45FCF45EB3403C00111248C
:10246000992359F09093200245EB24039001112405
:10247000332339F0309321024ECF81E08093200244
:10248000F3CF81E08093210246CFCF93DF93EC011D
:10249000FB018281882309F464C1C430FDE5DF07B4
:1024A000E0F5CB3F9CE5D90730F49E0122503C4536
:1024B00024313105D8F50E948B0B90935402809300
:1024C0005302C231ECE5DE0709F41FC108F06EC00B
:1024D000C9308CE5D80709F4F2C008F03FC0C53018
:1024E000ECE5DE0709F4DBC058F5C3308CE5D8070E
:1024F00009F4CDC008F0CFC0809153028160C23092
:10250000DC4509F4AEC080915302909154020E94C0
:10251000990B0E941A0680E009C0C63AEDE5DE0775
:1025200051F238F4C2369DE5D90729F2DF91CF91F7
:1025300008959E012E5A3D4523303105B8F7BBCF93
:10254000809153028062C730FCE5DF0709F489C03F
:1025500008F4B1C080915302806483C0CD309CE503
:10256000D90709F4BAC070F4809153028E7FCB3042
:10257000FCE5DF0709F475C008F4A7C08091530299
:102580008D7F6FC0CF309CE5D90709F4B6C008F441
:10259000A8C0C031FCE5DF0709F4B3C0C131DC4598
:1025A00009F0B1CF809153028F7B5BC0C1159DE5CF
:1025B000D90709F4B4C098F5CB3FFCE5DF0709F46F
:1025C00072C0B8F4C4319CE5D90709F4B6C008F468
:1025D000A2C0C531DC4509F096CF8091530282FB41
:1025E000992790F921E0922790FB82F990FB83F9DB
:1025F00038C0CD3F8CE5D80709F477C008F457C040
:10260000CE3FECE5DE0709F474C08091540283608C
:10261000CF3FDC4509F077CF8093540274CFC236A8
:102620008DE5D80709F496C068F4C230EDE5DE0701
:1026300009F48CC008F477C0C330DD4509F063CFDE
:1026400080E085C0CE3A9DE5D907E9F068F4909125
:102650005302892F8E7F90FF8160C63ADD4509F0D5
:1026600052CF809353024FCFCF3A8DE5D80789F1EF
:10267000C03BDD4509F047CF90915402892F877FF9
:1026800093FF8860C9CF809154028860C5CF809144
:1026900053028260E6CF809153028460E2CF809142
:1026A00053028860DECF809154028160B5CF809163
:1026B00054028260B1CF809153028061D2CF0E94D8
:1026C0001A06809153028068CCCF809153028C60AF
:1026D000C8CF80915402877F9FCF809153028B7F18
:1026E000C0CF80915302877FBCCF809154028E7FF0
:1026F00093CF809154028D7F8FCF809153028F7E34
:10270000B0CF809153028F7DACCF0E941A0680918A
:1027100053028F77A6CF80915302837FA2CF8091FF
:1027200054028C7F79CF80915402982F90959170AC
:102730008E7F892B90FB81F96FCF0E941A069091B2
:102740005302892F97FB87F980588BCF81E00E9435
:10275000220CD9CE90915302892F8F7E94FF8061F5
:1027600080CF81E0E3CEB0E0A0E0E9EBF3E10C94B0
:102770008B1EE82FF0E0E153FF4FD490282F2695D1
:102780002695269530E0F901E159FE4F04918770B6
:1027900010E0082E02C0159507950A94E2F7017023
:1027A0001127F901E15AFE4FE490F12C082E02C0E6
:1027B000F594E7940A94E2F791E0E922FF24F90105
:1027C000E15BFE4FC491D0E002C0D595C7958A95D4
:1027D000E2F7C170DD270115110519F081EE0E94A5
:1027E0001D03E114F10419F086EE0E941D038D2DE6
:1027F0000E94B303E114F10419F086EE0E9469030C
:102800000115110519F081EE0E946903CD2B19F015
:102810008CE20E94B303CDB7DEB7E7E00C94A71EAD
:10282000EF92FF920F931F93CF93DF938C01F62EBD
:102830008AE0E82EF8018491882309F454C081309D
:1028400009F04DC0E8012196FE018491813091F498
:102850002196FE0184910E94B3038E010F5F1F4FEA
:102860008F2D815038F3EFE9FFE03197F1F700C089
:102870000000F7CF823039F4E8012296FE018491FE
:102880000E941D03EACF833039F4E8012296FE014D
:1028900084910E946903E1CF8430F9F6E801229621
:1028A000FE01249190E080E0FE0131962053330B2D
:1028B0002A30310548F0019780F2EFE9FFE03197C7
:1028C000F1F700C00000F7CFE89EA001E99E500D8F
:1028D0001124C901840F951F2491EF01E5CF0E94B7
:1028E000B313E801BACFCDB7DEB7E6E00C94A81E6B
:1028F000CF93DF93EB0186319C4511F50E94880A46
:102900009A81992399F08A7A91E009F490E0909362
:102910002202811109C089E20E94600A0E94C90A4C
:1029200080E0DF91CF91089585E3F6CF8091220278
:10293000811104C089E20E94680AF0CF85E3FBCFD1
:1029400081E0EFCF0F931F93CF93DF93C42FD22F4C
:10295000FC0182818823C9F0409325020E942F1731
:10296000909324028093230280E28C0F883040F4FD
:10297000C77081E001C0880FCA95EAF70E94BC03C6
:10298000DF91CF911F910F9108951091250214139B
:1029900032C080912302909124020E944717883C04
:1029A000910548F5C0E2CD0F1D17B9F080E2810F07
:1029B000883040F4177081E001C0880F1A95EAF75B
:1029C0000E94C303C83048F481E09D2F977001C076
:1029D000880F9A95EAF70E94BC03802F0E94B303E8
:1029E000C83070F6D77081E001C0880FDA95EAF739
:1029F0000E94C303C5CF80E28C0F883008F6C770F1
:102A000081E001C0880FCA95EAF7F2CF0F939C01CD
:102A1000CB01243F4CE5340759F1A8F4293DFCE5EE
:102A20003F0701F12A3D4CE53407D1F1283D3C45F3
:102A300091F406E221EE41EE68ED7CE50E94A214DD
:102A400080E00F910895263FFCE53F07E9F0B0F0E4
:102A5000273F3C45F9F0FC018281882339F110922F
:102A60002502EFCF07E225EE45EE69ED7CE5E6CFE6
:102A700006E221EE40EE64EF7CE5E0CF07E225EED2
:102A800044EE65EF7CE5DACF06E221EE42EE66EF3A
:102A90007CE5D4CF07E225EE46EE67EF7CE5CECFAE
:102AA00008E221E045EE6AED7CE5C8CF81E0C9CFC0
:102AB00090937B0180937A01089590932B028093E9
:102AC0002A020895E0912A02F0912B02309729F012
:102AD0000190F081E02D0995089580E00895E0913E
:102AE0002A02F0912B02309799F0209116012223AF
:102AF00059F02091530227FF07C0DC012C91119659
:102B00002C93119726E02C930280F381E02D0995F8
:102B10000895E0912A02F0912B02309739F022E0DB
:102B2000DC012C930480F581E02D09950895209116
:102B30002802309129022817390771F09093290251
:102B400080932802E0912A02F0912B02309721F025
:102B50000680F781E02D0995089520912602309195
:102B600027022817390771F09093270280932602D5
:102B7000E0912A02F0912B02309721F00084F18538
:102B8000E02D09950895FC01329680911601882365
:102B900021F0809153029EE187FF96E080E0915002
:102BA00008F4089521912223D1F38F5FF8CF662393
:102BB00001F1209116012223F1F02091530227FF09
:102BC0001AC0462F4695469546954E3190F467704B
:102BD00021E030E002C0220F331F6A95E2F7840F34
:102BE000911DFC01828190E02823392381E0232B71
:102BF00069F480E00895FC01329608962191261729
:102C000021F0E817F907D1F7F4CF81E008959C018E
:102C1000FC0132969FEF80E04191461751F09F3FB3
:102C200019F4411101C0982F8F5F8630A9F79F3F9B
:102C300009F40895290F311D97FD3A95F901628332
:102C40000895FC01329608962191261303C0DF01F6
:102C500011971C92E817F907B9F70895E62FE69542
:102C6000E695E695EE3168F4E80FF92FF11D6770EF
:102C700021E030E001C0220F6A95EAF78281822BC1
:102C800082830895E62FE695E695E695EE3170F499
:102C9000E80FF92FF11D677021E030E001C0220F2D
:102CA0006A95EAF72095828128232283089520914E
:102CB0001601222339F02091530227FF03C00E94FE
:102CC0002E1608950E9407160895209116012223BA
:102CD00039F02091530227FF03C00E944216089545
:102CE0000E9421160895FC013296809116018823D6
:102CF00051F08091530287FF06C08EE1DF011D92E3
:102D00008A95E9F7089586E0F9CF46E050E00E9401
:102D1000CB1E21E0892B09F420E0822F089508952D
:102D20000E948F160895811106C081E080932C02C5
:102D30000E949016089582E0F9CF83E080932C02E0
:102D40000E94901608950E949316089581E0809342
:102D50002C020E94901608950E94A61608950895C8
:102D600008950E94B0160895089508950E94AF1620
:102D700008950E94B4160E94430F0E94B51680E089
:102D80000E94F50E91E0811101C090E0892F089515
:102D900085B7806885BF85B7806885BF08951F9215
:102DA0001FB61F9211248F939F93AF93BF9380916F
:102DB0002D02811113C08091570290915802A09169
:102DC0005902B0915A024196A11DB11D809357023C
:102DD00090935802A0935902B0935A02BF91AF91B9
:102DE0009F918F911F901FBE1F90189580915F0239
:102DF000843031F10E94A30210922D0288E190E00C
:102E000020E40FB6F894A895809360000FBE20933D
:102E1000600083B7817F846083BF83B7816083BF95
:102E20007894889583B78E7F83BF0FB6F894A89562
:102E300080916000886180936000109260000FBEF6
:102E400008950E941A060E94A802089582E084BD97
:102E500093E095BD9AEF97BD80936E0008952FB7CC
:102E6000F8948091570290915802A0915902B09124
:102E70005A022FBF08952FB7F894609157027091AE
:102E800058028091590290915A022FBF08959C01D7
:102E90004FB7F8948091570290915802A09159022F
:102EA000B0915A024FBF821B930B089578941F92E2
:102EB0001FB61F9211248F939F93AF93BF9380915E
:102EC000570290915802A0915902B0915A0201966E
:102ED000A11DB11D8093570290935802A0935902EF
:102EE000B0935A02BF91AF919F918F911F901FBED7
:102EF0001F90189587E797E7909301088093000843
:102F000088E19AE00FB6F894A895809360000FBE10
:102F100090936000FFCF88E19AE00FB6F894A895EF
:102F2000809360000FBE90936000FFCF80915102AC
:102F3000089508959C0182E08093E9009FEF8091BD
:102F4000E800915085FD06C085ED8A95F1F70000F7
:102F50009111F5CF8091E80085FF0CC050E040E072
:102F600066E070E0C9010E94DF198091E8008E7769
:102F70008093E8000895CF93DF93EC0180911601D0
:102F80008823B1F18091530287FF32C060E282E072
:102F90008093E9008FEF9091E800815095FD06C085
:102FA00095ED9A95F1F700008111F5CF8091E80039
:102FB00085FF1BC08091160170E050E040E0811158
:102FC00004C050E040E068E070E0CE010E94DF19EC
:102FD0008091E8008E778093E80080E2FE01A1E313
:102FE000B2E001900D928A95E1F7DF91CF910895BB
:102FF00068E081E0CDCF80932E0270933002609321
:103000002F0280915F02843001F582E08093E90015
:103010008FEF9091E800815095FD06C095ED9A954F
:10302000F1F700008111F5CF8091E80085FF0DC018
:1030300050E040E063E070E08EE292E00E94DF1931
:103040008091E8008E778093E8000895BC0184E0C9
:103050000E94FB170895BC0183E00E94FB170895AE
:1030600080915E02811109C00E946F1B0E94CC1BDF
:103070008091E20084608093E200089510925E02E5
:1030800008950E94A616089560915B0281E0611187
:1030900001C080E00E949D16089590915F0281E03A
:1030A000943009F080E060915B020E94A3160895BD
:1030B00042E061EC81E00E94EB1A42E261EC82E0C6
:1030C0000E94EB1A90915F0281E0943009F080E059
:1030D00060915B020E949316089580916102833093
:1030E00009F461C030F48130D1F1823009F49EC01E
:1030F00008958A3009F48AC08B3009F46FC0893092
:1031000009F050C080916002813209F04BC080917B
:10311000640290916502029708F044C08091E80033
:10312000877F8093E8008091E80082FF37C090910C
:10313000F3008091F200029731F48091F100813028
:1031400011F0863021F48091F1008093510280913A
:10315000E8008B778093E8000E941F1B23C08091BA
:103160006002813AF9F48091E800877F8093E8005B
:103170008091640290916502892B61F460E281E3A1
:1031800092E070E00E942E1A8091E8008B77809385
:10319000E800089560E090E080E0F3CF80915F0266
:1031A0008111C1CF089580916002813AD9F7809151
:1031B000640290916502892BA9F78091E800877FCE
:1031C0008093E8008091E80080FFFCCF8091160199
:1031D0008093F1008091E8008E77BCCF80916002EF
:1031E000813201F78091640290916502892BD1F6BA
:1031F0008091E800877F8093E8000E941F1B8091E8
:103200006202809316010E941A060895809160025E
:10321000813241F68091E800877F8093E8000E9428
:103220001F1B809163028093520208958091600277
:10323000813A09F0B7CF8091E800877F8093E8005A
:103240008091E80080FFFCCF80915202C1CF84B70B
:10325000877F84BF0FB6F894A8958091600088613D
:1032600080936000109260000FBE80E890E00FB67F
:10327000F89480936100909361000FBE0E94AC1699
:1032800008950E946F1B0E94CC1BE2EEF0E080814B
:103290008460808378940E944B1E08958AE091E0B8
:1032A0000E945D15089580915F02853031F4809110
:1032B0005F02853019F00E94211708950E94F616CA
:1032C00080915D02882399F30E94B916882379F3CF
:1032D0000E94C9190E941A06EACF08950E94711926
:1032E0000895292F33272330310519F168F421304F
:1032F000310509F444C02230310509F445C090E09D
:1033000080E030E020E025C02132310549F1223251
:103310003105A9F780E490E028EE32E061157105EF
:10332000C1F086EB90E022E332E06130710589F074
:10333000E6CF99278130910581F0009729F0029717
:10334000F1F6EFE7F1E002C0E1EEF1E0849190E008
:103350009F01FA01318320830895E3EBF1E0F6CF7A
:1033600089E090E027EF31E06115710591F389E084
:1033700090E020E132E06130710559F3C0CF82E185
:1033800090E020E232E0E5CF8BE390E025EE31E003
:10339000E0CF80E189BD82E189BD09B400FEFDCFA7
:1033A0008091D8008F7D8093D8008091E00082606A
:1033B0008093E0008091E00081FDFCCF0895AF9202
:1033C000BF92CF92DF92FF920F931F93CF93DF9321
:1033D0006C01EB018A010E943E1BF82E811123C073
:1033E0000115110539F0F80180819181C81BD90BB5
:1033F000C80ED91EB12CA12C2097A9F08091E8000D
:1034000085FD22C08091E8008E778093E800011549
:103410001105A1F0F80180819181A80EB91EB18239
:10342000A08285E0F82E8F2DDF91CF911F910F9113
:10343000FF90DF90CF90BF90AF9008950E943E1B09
:103440008823D1F2F82EEFCFF60181916F0180939E
:10345000F1002197FFEFAF1ABF0ACECFFC01809198
:1034600066029091670286179707A0F061157105B3
:1034700029F49091E8009E779093E80090E0611520
:10348000710551F4911108C08091E80082FF34C0A9
:1034900080E00895BC01F2CF80915F028823C1F1E2
:1034A0008530C1F18091E80083FD30C08091E80053
:1034B00082FDEACF8091E80080FFE1CF8091F300A8
:1034C0002091F200382F6115710519F0283031056F
:1034D00058F091E02830310509F090E02091E800A3
:1034E0002E772093E800CBCF81918093F10061503B
:1034F00071092F5F3F4FE7CF80915F02882341F032
:10350000853041F08091E80083FFBECF81E00895CF
:1035100082E0089583E00895FC0180916602909115
:10352000670286179707A0F06115710529F480914D
:10353000E8008E778093E80090E06115710551F402
:10354000911108C08091E80082FF35C080E00895A5
:10355000BC01F2CF80915F028823C9F18530C9F1A7
:103560008091E80083FD31C08091E80082FDEACFC0
:103570008091E80080FFE1CF8091F3002091F2007C
:10358000382F6115710519F02830310558F091E098
:103590002830310509F090E08091E8008E77809323
:1035A000E800CBCF84918093F1003196615071098E
:1035B0002F5F3F4FE6CF80915F02882341F0853037
:1035C00041F08091E80083FFBDCF81E0089582E063
:1035D000089583E00895982F973028F08F70809396
:1035E000E90081E008959093E900242F762F50E0C0
:1035F000981731F07091EC002091ED005091F0009F
:1036000021FD02C09F5FE8CF3091EB003E7F3093F9
:10361000EB003091ED003D7F3093ED003091EB00F9
:1036200031603093EB007093EC002093ED005093E9
:10363000F0002091EE0027FDE5CF80E00895809115
:10364000600287FF13C08091E80082FF06C080916E
:10365000E8008B778093E80004C080915F028111BD
:10366000F2CF089580915F028823D9F38091E8001A
:1036700080FFF8CF8091E8008E77ECCF2091E400B6
:103680003091E50095E6A9012091EC00822F817030
:1036900020FF06C08091E80080FF06C080E008950A
:1036A0002091E80022FD1AC080915F02882389F0F2
:1036B000853089F08091EB0085FD0FC02091E400FA
:1036C0003091E50042175307F9F29150E1F684E09A
:1036D000089582E0089583E0089581E008950E94AE
:1036E000DE1B0E94E61BE0EEF0E0808181608083BB
:1036F000E8EDF0E080818F77808319BCA7EDB0E022
:103700008C918E7F8C9380818F7E808310925E025D
:1037100008950F931F93CF93DF930E94DE1B0E94A7
:10372000E61BC8EDD0E088818F7788838881806828
:10373000888388818F7D888319BC10925F021092E4
:103740005B0210925D0210925C0200EE10E0F80144
:1037500080818B7F808388818160888342E060E004
:1037600080E00E94EB1AE1EEF0E080818E7F8083A2
:10377000E2EEF0E0808181608083808188608083D8
:10378000F80180818E7F8083888180618883DF91CA
:10379000CF911F910F910895E8EDF0E080818F7E29
:1037A0008083E7EDF0E080818160808384E082BFE8
:1037B00081E080935E020E94891B0895E8EDF0E0AD
:1037C00080818E7F80831092E20008951092DA004B
:1037D0001092E10008951F920F920FB60F921124DC
:1037E0002F933F934F935F936F937F938F939F9309
:1037F000AF93BF93EF93FF938091E10082FF0BC0E3
:103800008091E20082FF07C08091E1008B7F80936E
:10381000E1000E944A1E8091DA0080FF19C0809169
:10382000D80080FF15C08091DA008E7F8093DA0087
:103830008091D90080FF96C080E189BD82E189BD79
:1038400009B400FEFDCF81E080935F020E94301832
:103850008091E10080FF19C08091E20080FF15C0D7
:103860008091E2008E7F8093E2008091E20080618F
:103870008093E2008091D80080628093D80019BCC8
:1038800085E080935F020E9444188091E10084FFEC
:103890002BC08091E20084FF27C080E189BD82E1D6
:1038A00089BD89B5982F917080FFFBCF8091D8009A
:1038B0008F7D8093D8008091E1008F7E8093E1001E
:1038C0008091E2008F7E8093E2008091E20081602F
:1038D0008093E20080915B02882309F449C084E070
:1038E00080935F020E944D188091E10083FF29C000
:1038F0008091E20083FF25C08091E100877F809363
:10390000E10082E080935F0210925B028091E1000F
:103910008E7F8093E1008091E2008E7F8093E200B1
:103920008091E20080618093E20042E060E080E00C
:103930000E94EB1A8091F00088608093F0000E9452
:103940004118FF91EF91BF91AF919F918F917F911E
:103950006F915F914F913F912F910F900FBE0F90FC
:103960001F90189519BC10925F020E943E1870CFEC
:103970008091E30087FD93E090935F02B3CF1F92A5
:103980000F920FB60F9211242F933F934F935F9393
:103990006F937F938F939F93AF93BF93CF93DF9357
:1039A000EF93FF93D091E900DF708091EC00C82F76
:1039B000C17080FDC0E81092E9008091F000877F1F
:1039C0008093F00078940E94031D1092E90080918A
:1039D000F00088608093F000CD2BCF70C093E90099
:1039E000FF91EF91DF91CF91BF91AF919F918F9117
:1039F0007F916F915F914F913F912F910F900FBEEB
:103A00000F901F901895AAE2B0E0E9E0FDE10C9458
:103A10008F1E80E692E02091F100FC012193CF01FE
:103A2000F2E088369F07B9F70E946D188091E80090
:103A300083FF1EC180916002909161029A3008F06C
:103A400017C1E92FF0E0EF5CF04E0C947A1E80383D
:103A500099F0823809F00CC1809164028F70873030
:103A600008F006C18093E9008091EB0085FB882770
:103A700080F91092E90006C080915C0290915D028D
:103A8000911182609091E800977F9093E800809375
:103A9000F1001092F1008091E8008E77E5C0882354
:103AA00009F4D3C0823009F0E3C080916202811131
:103AB000D6C0809164028F702FEF280F263008F057
:103AC000D7C08093E9002091EB0020FFC8C093305D
:103AD00031F48091EB0080628093EB00C0C0909144
:103AE000EB0090619093EB0021E030E001C0220FE9
:103AF0008A95EAF72093EA001092EA008091EB00A1
:103B00008860EACF8111B4C0109162021F77809162
:103B1000E3008078812B8093E3008091E800877F29
:103B20008093E8000E941F1B8091E80080FFFCCF7B
:103B30008091E30080688093E30082E0111183E0CC
:103B400080935F0295C08058823008F091C08091C8
:103B50006202909163028C3D23E09207A1F583E01D
:103B60008A838AE289834FB7F894DE01139620E0B6
:103B70003EE051E2E32FF0E050935700E49120FF44
:103B800003C0E295EF703F5FEF708E2F90E0EA3058
:103B9000C0F0C7968D939D932F5F243159F74FBF87
:103BA0008091E800877F8093E8006AE270E0CE01B0
:103BB00001960E942E1A8091E8008B778093E8008E
:103BC00057C0C096E7CF6091640270916502AE0164
:103BD0004F5F5F4F0E946E19BC01892B09F448C0EA
:103BE0009091E800977F9093E80089819A810E94E4
:103BF0008C1AE1CF8038E1F58091E800877F8093CF
:103C0000E80080915B028093F10045CF811130C0C4
:103C100090916202923060F58091E800877F8093F6
:103C2000E80090935B020E941F1B80915B02882337
:103C300011F084E005C08091E30087FDFACF81E0B8
:103C400080935F020E94581813C0809162028130F5
:103C500079F481E0933009F080E080935D02109266
:103C6000E9008091E800877F8093E8000E941F1B95
:103C70008091E80083FF0AC08091E800877F8093ED
:103C8000E8008091EB0080628093EB00AA96E3E06D
:103C90000C94AB1E0895CF9380915F028823A1F00E
:103CA000C091E900CF709091EC00892F817090FD58
:103CB00080E8C82B1092E9008091E80083FD0E9403
:103CC000031DCF70C093E900CF91089597FB072E95
:103CD00016F4009407D077FD09D00E94B71E07FCA8
:103CE00005D03EF4909581959F4F0895709561950C
:103CF0007F4F0895EE0FFF1F0590F491E02D09947A
:103D00002F923F924F925F926F927F928F929F92EB
:103D1000AF92BF92CF92DF92EF92FF920F931F93D9
:103D2000CF93DF93CDB7DEB7CA1BDB0B0FB6F8948A
:103D3000DEBF0FBECDBF09942A88398848885F84CA
:103D40006E847D848C849B84AA84B984C884DF803B
:103D5000EE80FD800C811B81AA81B981CE0FD11D1F
:103D60000FB6F894DEBF0FBECDBFED010895AA1BBC
:103D7000BB1B51E107C0AA1FBB1FA617B70710F056
:103D8000A61BB70B881F991F5A95A9F78095909588
:103D9000BC01CD010895FB01DC0104C08D910190AF
:103DA000801921F441505040C8F7881B990B0895A1
:103DB000FB01DC0102C001900D9241505040D8F748
:103DC0000895F999FECF92BD81BDF89A992780B5E3
:103DD0000895A8E1B0E042E050E00C94151F262FB2
:103DE000F999FECF92BD81BDF89A019700B40216F1
:103DF00039F01FBA20BD0FB6F894FA9AF99A0FBE9F
:103E000008950396272F0E94F01E0E94EF1E252F73
:103E10000E94F01E242F0C94F01E0196272F0E9462
:103E2000F01E0C94EF1EDC01CB01FC01F999FECFD2
:103E300006C0F2BDE1BDF89A319600B40D92415032
:103E40005040B8F70895F894FFCF050405043604F0
:103E50003604C304DF0465046504EA045B056A05EF
:103E60006A05271D4F1D381E4F1D381E821DA31DBC
:063E7000381EFA1D061EBB
:103E7600E401280850011E0A14019617BB179A1769
:103E86002B182618991701E200E900EA00B500B6DA
:103E960000B700CD008301CC008A01920194012174
:103EA60002230224022502260227022A02B300B4B4
:103EB600006F007000818283E200E900EA00B5002D
:103EC600B600B700CD008301CC008A0192019401AF
:103ED6002102230224022502260227022A02B30017
:0A3EE600B4006F00700081828300B9
:00000001FF
